:020000040801F1
:10000000903C0020D9010108B343010801360108E2
:1000100025430108F90E010849AF0108000000005E
:100020000000000000000000000000003D6001082A
:100030009D1D01080000000035460108176C0108ED
:100040001DB00108F3010108F30101086152010824
:10005000F3010108F3010108F3010108F3010108AC
:10006000F3010108F3010108F3010108F30101089C
:10007000F3010108F3010108F3010108F30101088C
:10008000F3010108F3010108F3010108F30101087C
:10009000F3010108F3010108F3010108A12C010893
:1000A0005970010871700108F3010108F30101089A
:1000B000F3010108C170010875710108F30101081D
:1000C000F3010108F3010108F3010108F30101083C
:1000D000F3010108D98E0108F3010108F3010108B9
:1000E000F3010108ED4C010861450108F301010825
:1000F0005D78010809780108F3010108F30101089E
:10010000F3010108F3010108FD720108F301010880
:10011000F3010108318E010835740108A974010842
:10012000F3010108F3010108F3010108F3010108DB
:10013000F30101080000000000000000F3010108C5
:10014000F3010108F3010108F30101085145010819
:10015000F3010108F3010108F3010108F3010108AB
:10016000F3010108F3010108F3010108F30101089B
:10017000F3010108F3010108F30101080000000088
:1001800000000000F3010108000000000000000072
:10019000F30101080000000000000000F301010865
:1001A000000000000000000000000000F301010852
:1001B000F3010108F3010108F3010108F30101084B
:1001C000F3010108DFF80CD000F092FC0048004772
:1001D00095C10108903C002006488047064800472A
:1001E000FEE7FEE7FEE7FEE7FEE7FEE7FEE7FEE7E7
:1001F000FEE7FEE7196C0108C501010838B5D0E932
:100200000221491E01EB410102EBC1014268C1EB31
:10021000011102EB81010268C1EB011102EB8102C5
:10022000D0E9043101EB410103EB81013023A1F559
:10023000527191FBF3F4174D6C4302EBC41291FB26
:10024000F3F403FB141100921A2902DB124B1A4437
:1002500000920C2291FBF2F3104C6343009C04EBE0
:10026000C313009391FBF2F302FB13110C4A08E055
:10027000491E40F2A324535C6343009C04EBC31368
:1002800000930029F4DC0146684600F0EFFA00987C
:1002900038BD00003F0C0F008051010067C2030011
:1002A000E1E4010840EA01039B0703D009E008C923
:1002B000121F08C0042AFAD203E011F8013B00F82B
:1002C000013B521EF9D27047D2B201E000F8012B77
:1002D000491EFBD270470022F6E710B513460A46C6
:1002E00004461946FFF7F0FF204610BD30B505461D
:1002F0002A460B4612F8010B13F8014B08B1A04235
:10030000F8D01CB1002802D06D1CF1E7284630BDA2
:1003100010B5044604E00B7800F8013B03B1491C1A
:10032000521EF8D2204610BD034611F8012B00F8EA
:10033000012B002AF9D11846704770B506460AF01D
:10034000ADFE046805460A220021304600F0D4FACA
:100350002C6070BD2DE9FE4F804681EA0300C00F7E
:100360000C46009021F0004123F00045B8EB02005C
:10037000A94105D24046214690461C460B460246FE
:1003800023F00040104347D0270DC7F30A00C3F302
:100390000A510290401A019040286BDAC3F313000F
:1003A00040F4801B0098924620B10023D2EB030A50
:1003B00063EB0B0B01985946C0F14002504600F028
:1003C0001DFA06460D4650465946019A00F035FA88
:1003D00010EB08006141002487EA115284EAE773B8
:1003E0001A4340D0009A62B3019A012A4FEA075299
:1003F00015DC001B61EB02014FF0004202EA0752DC
:10040000CDE90042001C41F5801132462B4600F038
:10041000F1FA03B0BDE8F08F40462146F9E7001B32
:1004200061EB0201001C41F5801300185B412018AC
:10043000A2F5001747EB030140EAD570B6196D41EC
:1004400011E06D084FEA360645EAC0754FEA0752DB
:10045000001B61EB0201001C41F5801149084FEAC5
:1004600030000019514132462B4603B0BDE8F04F31
:1004700000F0B1BA0098012240000023D0EB020244
:1004800063EBE073009821464FEAE074B8EB00009C
:1004900061EB0401E9E783F000435BE781F0004191
:1004A00058E72DE9FE4F81EA030404F0004421F0EF
:1004B000004100944FF0000B23F0004350EA010488
:1004C0005ED052EA03045BD0C3F30A54C1F30A5569
:1004D0002C44A4F2F3340194A0FB0254C1F31301A1
:1004E00041F48011C3F3130343F4801301FB02446E
:1004F00000FB034E840A970A44EA815447EA835773
:10050000A4FB076802958D0A05FB07854FEA932C2B
:1005100004FB0C542705029D4FEA065847EA16379C
:10052000B5EB08056EEB070C870E920E47EA8117B4
:1005300042EA8312A7FB0201B6EB0B0164EB000455
:100540002B0D43EA0C335E1844EB1C50DA4651463F
:10055000E7FB0201C5F313044FEA0B3343EA1453DC
:100560004FEA0432019C43EA0603A4F10C0402940E
:10057000009CCDE900B400F03DFA03B0BDE8F08F77
:1005800000200146F9E72DE9F04D81EA030404F06B
:10059000004B21F0004514464FF0000A23F00041C3
:1005A00050EA050220D054EA01021DD0C5F30A57D3
:1005B0000246C5F31303C1F31300C1F30A5640F416
:1005C000801543F48013A7EB0608101BD64608F2EB
:1005D000FD3873EB050002D308F1010801E0921821
:1005E0005B41B8F1000F03DA00200146BDE8F08D51
:1005F00000204FF48011064684460EE0171B73EB73
:10060000050705D3121B63EB050306434CEA010CF7
:1006100049084FEA300092185B4150EA0107EDD1DA
:1006200052EA030012D082EA040083EA050108437B
:1006300005D0101BAB4106D20122002306E00022A8
:100640004FF0004302E06FF0010253101AEB060076
:100650004CEB085110EB0A0041EB0B01BDE8F04DEB
:1006600000F0B9B90EB5C10F80EAE0700844CA07BE
:10067000002140F233438DE80E000A460B4600F09D
:10068000B9F903B000BD0EB540F23341029100212B
:10069000CDE900110A460B4600F0ACF903B000BDED
:1006A00070B5C1F30A5201F000450024C1F31301F3
:1006B00040F2FF3341F480119A4201DA002070BD0C
:1006C00040F233439A42A2F2334203DC524200F03A
:1006D000A4F800E090402C43F1D0404270BDC1F33B
:1006E0000A5210B5C1F3130140F2FF3341F48011F7
:1006F0009A4201DA002010BD40F233439A42A2F23E
:10070000334203DC524200F088F810BD904010BD27
:1007100000F0004230F000400AD0C10D01F56071D8
:10072000C0F3160042EA0151C20840071143704766
:1007300000200146704701F0004330B421F0004131
:1007400050EA010206D00A0DA2F56072C1F313014E
:10075000002A02DC30BC00207047440F44EAC10488
:10076000C100E01830BC00EBC25000F0FDB830B55D
:100770000B46014600202022012409E021FA02F55F
:100780009D4205D303FA02F5491B04FA02F52844F9
:10079000151EA2F10102F1DC30BD2DE9F05F054626
:1007A000002092469B4688460646814640241BE030
:1007B000284641464746224600F02FF853465A46FF
:1007C000C01A914110D311461846224600F016F87F
:1007D0002D1A67EB01084F4622460120002100F048
:1007E0000DF817EB00094E41201EA4F10104DFDCD7
:1007F000484631462A464346BDE8F09F202A04DB9E
:10080000203A00FA02F1002070479140C2F1200323
:1008100020FA03F3194390407047202A04DB203A62
:1008200021FA02F00021704721FA02F3D040C2F110
:1008300020029140084319467047202A06DBCB1757
:10084000203A41FA02F043EAE07306E041FA02F38B
:10085000D040C2F120029140084319467047000081
:10086000014900F003B800006033002010B50068B3
:100870003C22B0FBF2F302FB1303B0FBF2F00B607F
:10088000B0FBF2F302FB1303B0FBF2F018224B6053
:10089000B0FBF2F302FB1303B0FBF2F0021D8B601E
:1008A0000723B2FBF3F403FB1422800040F2B5539C
:1008B00000F66C308A61B0FBF3F2B0FBF3F403FB9B
:1008C0001400443280084A61C8613B2802D3920771
:1008D00000D0401C0022074C13460A61E25C8242B1
:1008E00003D8801A5B1C0B61F8E7401CC8600846FF
:1008F00010BD0000EDE401082DE9F04791460F46D8
:1009000080460446002614F8015B2DB100F002F980
:100910000068405DC007F6D12B2D02D02D2D18D0D8
:10092000641E4A463946204600F0F8F827B1396877
:10093000A14201D1C7F8008071054FF002040BD528
:100940004042002803DD0AF0A9FB0460A007BDE8CF
:10095000F08746F48066E4E70028F8DA0AF09EFBA8
:1009600004606FF00040F2E70029A8BF7047401C08
:10097000490008BF20F00100704710B4B0FA80FCB5
:1009800000FA0CF050EA010404BF10BC704749B1F2
:10099000CCF1200421FA04F411FA0CF118BF012162
:1009A00021430843A3EB0C01CB1D4FEA00614FEA42
:1009B000102042BF002010BC704700EBC350104411
:1009C0000029A4BF10BC7047401C490008BF20F09C
:1009D000010010BC704710B5141E73F1000408DA52
:1009E000401C41F1000192185B411A4301D120F0F3
:1009F000010010BD2DE9F04D92469B4611B1B1FAB0
:100A000081F202E0B0FA80F220329046FFF7F6FE63
:100A100004460F4640EA0A0041EA0B0153465A4693
:100A2000084313D0114653EA010019D0C8F140021F
:100A30005046FFF7F2FE05460E46504659464246DE
:100A4000FFF7DCFE084305D0012004E020463946CC
:100A5000BDE8F08D0020054346EAE0762C4337439D
:100A60000A986305E40AA0EB08000022FD0A44EAA4
:100A700047540A3002D500200146E9E70105101964
:100A80006941DDE9084500196941BDE8F04DA2E77B
:100A9000C1F30A52C1F3130140F2FF3341F4801154
:100AA0009A4202DA00200146704740F233439A42EC
:100AB000A2F2334202DC5242FFF7AFBEFFF79EBE06
:100AC00030B5041E71F1000404DB4FF000444042D5
:100AD00064EB0101141E73F1000405DB1C464FF0AA
:100AE0000043524263EB0403994208BF904230BD79
:100AF000064C074D06E0E06840F0010394E807006B
:100B000098471034AC42F6D3FFF760FB14E70108B6
:100B100034E70108004870477CE501082DE9F05FE3
:100B200082460078002715468B460AF10104B94633
:100B3000302801D09DB113E014F8010B012778286B
:100B400003D0582801D045B10AE00DB1102D07D1CE
:100B50000027102514F8010B02E0082500E00A2503
:100B60000026B0460EE005FB080005FB06F1012754
:100B700001EB10461FFA80F8B6F5803F00D3B94666
:100B800014F8010B294600F018F80028EBDABBF145
:100B9000000F05D00FB1641E00E05446CBF80040B2
:100BA000B9F1000F06D00AF079FA02210160C81EDF
:100BB000BDE8F09F48EA0640FAE73A2800D230380C
:100BC00020F02002412A01D3A2F13700884201D34C
:100BD0004FF0FF30704770B58C1810F8015B15F0BE
:100BE000070301D110F8013B2A1106D110F8012B9F
:100BF00003E010F8016B01F8016B5B1EF9D12B07C4
:100C000005D40023521E0DD401F8013BFAE710F879
:100C1000013BCB1A921C03E013F8015B01F8015B66
:100C2000521EF9D5A142D8D3002070BD10B540F2B4
:100C3000FF3000F027F80446552C01D1002010BDEC
:100C4000552140F2FF3000F05CF8002440F2FF3004
:100C500000F018F80446552C01D10020EFE70120E0
:100C6000EDE770B506460C46154608E03046721CA6
:100C700096B200F007F804F8010B681E85B2002D4B
:100C8000F4D170BD70B50446002602F0E5FDA22047
:100C900002F0ACFD02F030FE201202F0A7FD02F0DF
:100CA0002BFE2546E11704EB11610912A4EB01218B
:100CB000C8B202F09BFD02F01FFE02F0CDFDA320A2
:100CC00002F094FD02F018FE002002F059FD0646E5
:100CD00002F0E8FD304670BD2DE9F04106460D46B4
:100CE000174607E02C782146304600F00AF8701CC1
:100CF00086B26D1C381EA7F101018FB2F2D1BDE89A
:100D0000F08170B504460E4602F0A6FDA22002F066
:100D10006DFD02F0F1FD201202F068FD02F0ECFD25
:100D20002546E11704EB11610912A4EB0121C8B2B9
:100D300002F05CFD02F0E0FD304602F057FD02F0EB
:100D4000DBFD02F0AFFD05200AF0DCFE70BD000007
:100D50003EB50446254A07CA8DE8070024480088A6
:100D6000401C2349088008460088000A8DF80300CB
:100D7000084600788DF804008DF807400921684680
:100D800005F01EFFC0B28DF80800214619A00AF038
:100D900061F9012C21D11D48007E012814D11CA02D
:100DA0000AF058F90020194908761E48007828B939
:100DB000012218316F2001F066FC05E00122134981
:100DC00018316F20FFF788FF002017490870174877
:100DD000007810B9012003F08DFA092168460AF065
:100DE000B5F80120124908703EBD000028E4010852
:100DF000A0000020424C455F4D657368203A206496
:100E0000617461203D2025640D0A000088310020B6
:100E100064657669636520756E7061697265640DDD
:100E20000A0000000400002005000020200000202F
:100E30009E00002010B506484079032806D10448DA
:100E4000C079012802D103A00AF004F910BD000006
:100E500014110020424C455F4D65736820436F6E4E
:100E6000666967204F4B0D0A000000000EB51BA2FB
:100E700007CA8DE807001C480088401C1A490880F2
:100E800008460088000A8DF80300084600788DF8AF
:100E900004001648C07918B900201549087005E00B
:100EA0001248C079012801D1114908701048007812
:100EB0008DF807000921684605F082FEC0B28DF862
:100EC00008000A484079E02803D1092168460AF061
:100ED0003DF80120074908700EBD000055AA010029
:100EE00000E0010000000000A0000020141100201C
:100EF000A30000209E00002000BFFEE70EB55D4A63
:100F000007CA8DE807000A200AF0FCFD5A4800884D
:100F1000401C5949088008460088000A8DF80300E3
:100F2000084600788DF804005448C079052877D227
:100F3000DFE800F003366B6C770051A00AF08AF806
:100F400001205749087003F03BFB5648007810B960
:100F5000012003F0CFF90AF067FD0620524908701E
:100F60000120524908705248007E012811D100200A
:100F70004F4908764F48007828B9012218316F2070
:100F800001F081FB05E00122494918316F20FFF78C
:100F9000A3FE0120484908700020484908704BE032
:100FA00047A00AF057F84248007E88B9012040491E
:100FB00008764048007828B9012218316F2001F0E6
:100FC00062FB05E001223A4918316F20FFF784FEE9
:100FD0003748C07D40B9062033490870082036499B
:100FE00008700DF069F807E007202F49087000200D
:100FF000314908700DF098F8012030490870002040
:10100000344908703449087016E000BF33A00AF074
:1010100021F82A48007810B10020284908700BE018
:1010200009E034A00AF016F82448007810B901202D
:101030002249087000E000BF00BF01208DF80700C2
:101040000921684605F0BCFDC0B28DF808000B48C8
:101050004079022806D10921684609F077FF01206E
:1010600029490870144802781448017827A009F02B
:10107000F1FF0EBD1CE40108A000002014110020A7
:101080006465766963652069732064656C65746561
:10109000642066726F6D206170700D0A00000000A0
:1010A0001E00002020000020A5000020A400002039
:1010B0008831002004000020C4000020050000202A
:1010C000646576696365206973207061697265641F
:1010D000200D0A00C6000020C7000020626C6520B9
:1010E0006E657420646973636F6E6E6563740D0A58
:1010F00000000000626C65206E657420636F6E6E88
:1011000065637465640D0A009E000020436F6E6E77
:101110006563745F5374617475733A2025642C2081
:1011200070696C6F745F6C616D705F6D6F64653A50
:101130002025640D0A00000070B506460C4604F038
:101140008000802808D104F07F0000EB800106F5C4
:101150008E7000EBC10507E004F07F0000EB80011A
:1011600006F55D7000EBC10504F07F00287004F007
:101170008000C00968702946304609F056FA002000
:1011800070BD70B506460C4604F08000802808D17A
:1011900004F07F0000EB800106F58E7000EBC105C6
:1011A00005E004EB840106F55D7000EBC10500204D
:1011B000A87004F07F002870C4F3C010687029463E
:1011C000304609F00AFA002070BD2DE9F0410646CC
:1011D0000D4690461F4605F08000802808D105F096
:1011E0007F0000EB800106F58E7000EBC10407E084
:1011F00005F07F0000EB800106F55D7000EBC10497
:1012000005F07F00207005F08000C0096070C4F810
:101210000880E770607808B12078E080022F01D163
:10122000002020712146304609F08BF90020BDE8EE
:10123000F0812DE9F04105460E461746984606F026
:101240007F0000EB800105F55D7000EBC104E760F5
:10125000C4F814800020A061607006F07F00207048
:10126000E878012800D12761207820B92146284656
:1012700009F08BF803E02146284609F055FA0020D2
:10128000BDE8F08108B500220092009A61F30A12CD
:10129000009202691268009B1A4303691A6008BD34
:1012A00070B506460C4604F08000802808D104F092
:1012B0007F0000EB800106F58E7000EBC10505E0B4
:1012C00004EB840106F55D7000EBC1050120A870F8
:1012D00004F07F002870C4F3C010687029463046BF
:1012E00009F0F0F9002070BD2DE9F04107460D46E8
:1012F0001646984605F07F0000EB800107F58E70DA
:1013000000EBC1040120607005F07F002070E660F2
:1013100026610020A061C4F81480207820B92146FD
:10132000384609F032F803E02146384609F0FCF966
:101330000020BDE8F081000030B587B00546594C6B
:10134000284608F0E8FF01A803F002FC029CE868C8
:10135000C0680590059820F4705005900598E968DC
:10136000C860284609F0A8FB03280BD10020A8700C
:101370004FF40070A880059820F4705000F51050CC
:1013800005907EE00120A8704020A8804648844255
:1013900009D34648844206D2059820F4705000F5DF
:1013A000605005906DE04148844209D34048844232
:1013B00006D2059820F4705000F55050059060E07A
:1013C0003B48844209D33B48844206D2059820F426
:1013D000705000F54050059053E03648844209D3E0
:1013E0003548844206D2059820F4705000F53050FC
:1013F000059046E03048844209D33048844206D202
:10140000059820F4705000F52050059039E02B48E5
:10141000844209D32A48844206D2059820F47050A9
:1014200000F5105005902CE02548844209D325484A
:10143000844206D2059820F4705000F500500590C3
:101440001FE02048844209D31F48844206D20598F1
:1014500020F4705000F5E050059012E01A488442E4
:1014600009D31A48844206D2059820F4705000F53A
:10147000C050059005E0059820F4705000F5A0508C
:1014800005900598E968C86000200690069820F449
:10149000005000F5005006900698E9684861012068
:1014A00007B030BD007A030AC0E1E4000024F40074
:1014B000E0EC040100C31801002D310140A44C01EF
:1014C00000366E0140E2950180C3C90160600B02E5
:1014D000F8B50546002400200090284609F02DFBB1
:1014E000064681E006F0010000287BD0E1B22846E4
:1014F00000F0F6FA0090009800F0010030B30120EF
:1015000000FA04F72869406BB84329694863002052
:101510000090009820F00100401C009005F1180098
:1015200050F8240000998160E1B2324800684268B6
:1015300028469047E878012808D13CB940F21110BC
:10154000405D042802D1284608F0CAFF0098C0F385
:10155000C00060B100200090009820F00800083022
:10156000009005F1180050F824000099816000985F
:10157000C0F3001060B100200090009820F010002F
:101580001030009005F1180050F824000099816097
:101590000098C0F3801060B100200090009820F007
:1015A00040004030009005F1180050F824000099E8
:1015B00081600098C0F3400060B100200090009866
:1015C00020F00200801C009005F1180050F8240063
:1015D000009981600098C0F3C01018B121462846D8
:1015E00000F092FA641C7608002E7FF47BAF012095
:1015F000F8BD0000080200207CB50446002500204C
:101600000190204609F0A1FA06466FE006F00100BD
:10161000002869D0E9B2204609F09FFA01900198AC
:1016200000F00100C8B300200190019820F00100F3
:10163000401C019004F1540050F82500019981608C
:10164000E078012817D104F1540050F82500006912
:10165000009005EB850104F55D7000EBC10080682A
:101660000099C1F31201411A05EB850204F55D7082
:1016700000EBC2008161E9B21E48006802682046A2
:101680009047E078012808D13DB940F21110005D83
:10169000052802D1204608F023FF0198C0F340003E
:1016A00060B100200190019820F00200801C0190A0
:1016B00004F1540050F82500019981600198C0F3AD
:1016C000C00088B10B480068816820468847002028
:1016D0000190019820F008000830019004F15400B6
:1016E00050F82500019981606D1C7608002E8DD17F
:1016F00001207CBD080200203EB50446A07A78B1E6
:10170000D4F80C0100680090009820F002000090CE
:10171000009820F0010000900099D4F80C010160BD
:1017200000200190019820F00100401C01902069E8
:1017300040680199884321694860094800688169C7
:101740002046884700200290029820F0004000F1D7
:10175000004002900298E168486101203EBD00000F
:10176000080200207CB5044600200190019820F07A
:10177000100010300190E068806901998843E168A9
:101780008861E068006A0090009800F00F0000EBAC
:10179000800104F55D7000EBC1050098C0F3434083
:1017A00007282DD2DFE800F02C04051D1E2C1F0099
:1017B00027E00098C0F30A1090B10098C0F30A1215
:1017C0002046E96809F0D3F9E8680099C1F30A11E5
:1017D0000844E860A8690099C1F30A110844A861A7
:1017E0000FE00EE00DE0082204F2CC51204609F093
:1017F000BEF9A8690099C1F30A110844A86100E084
:1018000000BF00BFE068806901990843E168886112
:1018100001207CBD38B5044608480068C1682046F0
:10182000884700200090009820F0080008300090C1
:101830000098E1684861012038BD000008020020DE
:101840001FB50446002000904FF48970005D0090A1
:1018500023480068416920468847206980680190D4
:1018600000200390039820F4006000F500600390CE
:101870000398E1684861A07A70B3019800F0010014
:1018800050B340F21510005D012825D19DF80000ED
:10189000032821D100200290029820F00100401C72
:1018A0000290D4F80C01006802990843D4F80C1196
:1018B0000860029820F00200801C0290D4F80C010D
:1018C000006802990843D4F80C11086005480068C4
:1018D00040F0060003490860012004B010BD00007C
:1018E0000802002010ED00E030B587B0044600206B
:1018F000029006900590049003900190029820F0C9
:101900000100401C029020694068029988432169C7
:1019100048600021204609F0A5F800250BE0FF21D2
:1019200004F1180050F82500816004F1540050F8CB
:10193000250081606D1C6078A842F0D84FF0FF311F
:101940002069816106986FF30F00401C069006988D
:1019500080B200F58030069006992069C161059833
:1019600020F0080008300590059820F00100401C88
:101970000590059820F00200801C059005992069CB
:101980004161049820F00100401C0490049820F06C
:10199000080008300490049820F00200801C049095
:1019A000049920690161206900680390039820F47C
:1019B000FE600390039920690160204608F090FDC5
:1019C00000200190019820F4805000F58050019093
:1019D0000198E16848610448006801692046884729
:1019E000012007B030BD0000080200202DE9F041C1
:1019F00006460F463946304609F0CEF801214FF42D
:101A0000897081550021801C8155002511E005EB6E
:101A1000850106F58E7000EBC10401206070257011
:101A2000E5800020E0704020A0600020E060606160
:101A30006D1C7078A842EAD8002510E005EB8501FE
:101A400006F55D7000EBC104002060702570E58034
:101A5000E0704020A0600020E06060616D1C707844
:101A6000A842EBD8304608F045FC0021304609F08A
:101A7000FBF8304608F064FA304608F0FEFA3046CB
:101A800008F0B8FFBDE8F08138B5044600200090AA
:101A900007480068C16920468847009820F48010F4
:101AA00000F5801000900098E1684861012038BD81
:101AB0000802002038B5044600200090074800685E
:101AC000016A20468847009820F4001000F50010B5
:101AD00000900098E1684861012038BD08020020AC
:101AE00030B5024615692B6915696C6B24FA01F54E
:101AF00005F0010543EAC51302F1180555F8215018
:101B0000AD6805EA030030BD2DE9F84306460F46EF
:101B100000250020009007EB870106F58E7000EB92
:101B2000C104D4E90501451AA068A84200D2A568FD
:101B3000E81C4FEA900806F1180050F82700806969
:101B4000009029E0D4E90501451AA068A84200D216
:101B5000A568E81C4FEA9008ABB2FAB23046E168DB
:101B600009F0C5F8E0682844E060A0692844A06155
:101B700006F1180050F8270080690090D4E90501AB
:101B8000884209D12278012101FA02F03169496BBA
:101B900081433269516300BF009880B2404506D945
:101BA000D4E90510884202D260690028CAD1012018
:101BB000BDE8F88321B1026842F00102026003E04F
:101BC000026822F00102026070470000016821F003
:101BD000010101600021016041608160C16001611B
:101BE000212141614A49884204D13D21484A103AA5
:101BF00091608CE046491831884205D14FF47461F8
:101C0000434A103A916082E041493031884205D11F
:101C10004FF474113E4A103A916078E03C494831E3
:101C2000884205D14FF07461394A103A91606EE0F4
:101C300037496031884204D13649354A103AD1607B
:101C400065E033497831884204D13349304A103A4B
:101C5000D1605CE02E499031884204D12F492C4A52
:101C6000103AD16053E02A49A831884205D14FF09B
:101C70003D51274A103AD16049E02949884204D1B0
:101C80003D21274A083A116041E025491831884230
:101C900005D14FF47461224A083A116037E02049B7
:101CA0003031884205D14FF474111D4A083A116051
:101CB0002DE01B494831884205D14FF07461184A24
:101CC000083A116023E016496031884204D1114975
:101CD000134A121F11601AE011497831884204D169
:101CE0000D490F4A121F116011E00D4990318842D1
:101CF00004D10A490A4A121F116008E00849A831B4
:101D0000884204D14FF03D51054A121F11607047BF
:101D1000106002403D000020400F002000003D20E8
:101D200010640240014600200A6802F001020AB174
:101D3000012000E0002070470146486880B27047EB
:101D400010B500220268134B1A40CC680B6823437D
:101D50004C6923438C692343CC6923430C6A234396
:101D60004C6A23438C6A23434C6B23438C6B234381
:101D70001A430260426922F00702D1E90B3423437F
:101D80001A4342610B6943604B6883608B68C36090
:101D900010BD00003F801CF041607047704700009C
:101DA0002DE9F0412DED048B8CB00025A94A07CA1E
:101DB00009AB07C30024A8480088401CA649088036
:101DC00008460088000A8DF82700084600788DF83C
:101DD0002800A2A009F03EF9A54890F8068000BFAF
:101DE0000BE0E81DA249085C01A9485501A8415D26
:101DF000A0A009F02FF9681C85B29D488079A842FF
:101E0000EFDC9FA009F026F99DF805009DF804106D
:101E100000EB01209B4948819DF8060008739DF85E
:101E200008009DF8071000EB01209649C8819DF835
:101E3000090008749DF80A0048749DF80B00887426
:101E40009DF80B0018B900208F49087002E00120AE
:101E50008D4908709DF80D009DF80C1000EB0120D5
:101E6000884988829DF80F009DF80E1000EB012034
:101E70008449C8809DF811009DF8101000EB0120E6
:101E8000804988809DF8160088759DF816004FF4EB
:101E9000E171A1EB80007D4908809DF81700794928
:101EA000C875B8F1180F09D19DF81B009DF81A10DC
:101EB00040EA0124214676A009F0CCF87B4800785E
:101EC000A8BB0A2201A9622000F0DDFB04220DF16B
:101ED0000E015C2000F0D7FB02220DF116016C20F0
:101EE00000F0D1FB0122674917316E2000F0CBFBD7
:101EF0000A2C52DBB4F57A7F4FDC02220DF11A0175
:101F0000602000F0C0FB5F4804812046FEF7BBFB69
:101F100041EC190B9FED660B53EC102BFEF7C1FA49
:101F200041EC180BFEF7DBFB6349088035E0FFE767
:101F30000A2201A96220FEF7CFFE02220DF10E0156
:101F40005C20FEF7C9FE02220DF116016C20FEF79F
:101F5000C3FE01224B4917316E20FEF7BDFE0A2C4D
:101F60001BDBB4F57A7F18DC02220DF11A01602028
:101F7000FEF7B2FE434804812046FEF784FB41ECA5
:101F8000190B9FED4B0B53EC102BFEF78AFA41EC2B
:101F9000180BFEF7A4FB484908809DF812000006C4
:101FA0009DF8131000EB01409DF8141000EB012088
:101FB0009DF815104718B8F1160F31DB9DF8180081
:101FC000012803D19DF81900464201E09DF81960EF
:101FD00031463AA009F03EF83D48B0F9000086428B
:101FE0001ED03B4806800088000A8DF80000384863
:101FF00000788DF801003648B0F9001035A009F0DE
:1020000029F82A48007828B1022269465220FEF7B2
:1020100063FE04E002226946522000F034FB00BF58
:10202000384608F047FF092109A804F0C9FDC0B2ED
:102030008DF82C000E484079302806D1092109A8D6
:1020400008F084FF01202A4908700CB0BDEC048B15
:10205000BDE8F081D8E40108A0000020446576695D
:1020600063655F496E697420646174613A200000A1
:102070001411002020307825303258200000000054
:102080000D0A000088310020AC000020A6000020CE
:102090005365742075762064757479206379636C58
:1020A00065203A2025640D0A00000000040000208D
:1020B000000000000000F83F4C00002054696D65EE
:1020C000205A6F6E65203D2025640D0A0000000037
:1020D000BE0000205570646174652054696D6520F0
:1020E0005A6F6E6520746F2025640D0A0000000091
:1020F0009E0000203EB5944A07CA8DE807000024E0
:1021000092480088401C9149088008460088000ACF
:102110008DF80300084600788DF804008C48C079DB
:102120008DF807000921684604F04AFDC0B28DF819
:1021300008000921684608F009FF01208549087058
:102140009DF8070084490978884206D183480078C1
:1021500018B183A008F07EFFF4E07F48007818B142
:102160007D480078012814D19DF8070018B19DF82A
:102170000700012806D17948007818B1002082496B
:1021800008800EE009F0FCFB002080490870012463
:1021900007E09DF8070018B19DF80700012800D15D
:1021A00001249DF8070030B1012805D0062877D01A
:1021B000072876D188E000BF00207549087002200A
:1021C000744908706548007810B9012002F092F84F
:1021D0000020714908800120704908700020704972
:1021E000087070480078022816D16F48008840F6C1
:1021F0000C01084028B96C48007800F0030003285F
:102200000AD15548007806285CD053480078072842
:1022100058D009F009FC55E09DF807004E490870B8
:10222000052060490870022001F0ACFE4A480078A1
:1022300038B90BF079FF09205A4908700BF020FFDC
:1022400004E00020574908700BF06EFF0121574849
:1022500005F06BFB002056490870564800780128AD
:1022600003D17CB30BF076FD2CE05248007818B90E
:1022700044B30BF0F7FC25E04FA008F0EBFE5D48FF
:10228000C07D01280ED107203349087045480078E9
:10229000022813D00020434908700BF045FF0DE0E1
:1022A00011E04EE006202C4908703E4800780228D4
:1022B00004D008203B4908700BF0FEFE00213B488B
:1022C00005F033FB3DE000BF9DF807002249087090
:1022D00000202F4908702148007810B9012002F031
:1022E00009F80021314805F020FB1B48007806283A
:1022F0000CD14048C07D48B92A480078022811D046
:102300000820284908700BF0D7FE0BE0072012497F
:10231000087024480078022804D000202149087061
:102320000BF002FF01202249087000201B490870B1
:1023300002201849087000201749088018490870C1
:1023400000BF00BF3EBD00006CE40108A0000020FB
:10235000141100209E000020A50000202000002075
:1023600053616D65206D6F646520746F20736574B3
:102370002C206E6F206E65656420746F2063686129
:102380006E6765210D0A00006A000020AD00002084
:10239000530000201F0000204E00002012000020EB
:1023A00052000020C40000200C0000200014004057
:1023B000A4000020A200002057726F6E67206D6F8E
:1023C00064652073657420616E642063616E206EA5
:1023D0006F74207475726E206F6E206C616D702C3E
:1023E00020506C6561736520636865636B210D0A1D
:1023F000000000008831002010B52DED048B84B062
:10240000384A07CA01AB07C337480088401C364921
:10241000088008460088000A8DF807000846007802
:102420008DF808003148C0798DF80B002F48007AEC
:102430008DF80C009DF80C009DF80B1000EB0120AE
:1024400084B24CB92A480089000A8DF80B0028484C
:10245000007A8DF80C002FE025480089A04228D092
:10246000B4F57A7F25DC0A2C23DB2248007830B9CA
:1024700002220DF10B01602000F005F905E00222B7
:102480000DF10B016020FEF727FC1948048120465E
:10249000FEF7F9F841EC190B9FED170B53EC102BDD
:1024A000FDF7FFFF41EC180BFEF719F914490880FE
:1024B00002E014A008F0CEFD0A2101A804F080FB80
:1024C000C0B28DF80D00094840792D2803D10A21AA
:1024D00001A808F03BFD01201A49087004B0BDECCA
:1024E000048B10BDC0E40108A000002014110020DE
:1024F0008831002004000020000000000000F83FA8
:102500004C0000204E6F206E65656420746F20754E
:10251000706461746520647574795F6379636C6558
:102520002C2077726F6E672076616C7565206F72F4
:102530002072657065617465642076616C75650DE7
:102540000A0000009E00002038B500F05BF8092862
:1025500030D1694640F2FF3000F05EF878B9BDF83E
:102560000000552804D114A008F074FD002038BDE7
:10257000552140F2FF3000F074F80020F7E769467B
:1025800040F2FF3000F048F8012813D10FA008F006
:1025900061FD002405E0FF21204600F062F8601C88
:1025A00084B240F2FF308442F5DB552100F059F847
:1025B0000020DCE70120DAE7454550524F4D5F43EC
:1025C0006865636B204F4B0D0A000000466972730B
:1025D0007420696E697420656D756C6174696F6EC5
:1025E00020656570726F6D202C6E65656420777252
:1025F00069746520696E697469616C2064617461D5
:102600000D0A000010B500F0F3FC00F0A7F8044636
:1026100000F094FC204610BDF8B506460C4669460D
:10262000304600F013FA054625B9BDF80000C0B2E7
:10263000208001E0002020802846F8BDF8B505463E
:102640000E461746002409E0291988B26946FFF7AB
:10265000E3FFBDF800003055601C84B2BC42F3DBE0
:10266000F8BD2DE9F04105460C4644F47F4700F0E3
:10267000BFFC3946284600F065FA064600F05EFCCD
:102680003046BDE8F0812DE9F04106460F46904600
:10269000002407E03D5D311988B22946FFF7E1FFCC
:1026A000601C84B24445F5DBBDE8F0810346062199
:1026B00006221248018812480288ABB1012B1BD1B7
:1026C0003AB94EF6EE60814201D1002070470120F8
:1026D000FCE739B94EF6EE60824201D10120F5E700
:1026E0000020F3E7AB20F1E709B90020EEE70AB9D3
:1026F0000120EBE7AB20E9E70020E7E700800008D6
:1027000000C0000810B50924124800F005FA40B9CD
:102710000221102000F0A4FB0446092C01D0204621
:1027200010BD00210B4800F013FC0446092C01D019
:102730002046F5E7084800F0EFF940B902211820DB
:1027400000F08EFB0446092C01D02046E8E7092062
:10275000E6E700000080000800C000082DE9F0470F
:102760004FF0060A062600250027A8464FF0FF393D
:102770007E48B0F800A07E480688BAF1000074D008
:10278000A0F56E40EE38A0B3A0F5885011380028AF
:102790006CD16EB9754800F0BFF958BB022110200A
:1027A00000F05EFB0446092C25D02046BDE8F087EA
:1027B0004EF6EE60864215D16C4800F0ADF940B996
:1027C0000221102000F04CFB0446092C01D02046C9
:1027D000ECE70021664800F0BBFB0446092C0AD058
:1027E0002046E3E7FFF78EFF0446092C03D020467E
:1027F000DCE701E0FFE7B6E0B6BB00251BE05B4885
:10280000C088A84201D10FFA85F94D4511D0594928
:10281000284600F01BF98046B8F1010F09D0554851
:102820000188284600F042F90746092F01D03846B2
:10283000BCE7681C85B2B5F5806FE0DB00214B4832
:1028400000F086FB0446092C01D02046AEE748483C
:1028500000F062F960BB0221182000F001FB044681
:10286000092C25D02046A1E701E022E073E04FF6D5
:10287000FF70864215D13E4800F04EF940B9022162
:10288000182000F0EDFA0446092C01D020468DE70F
:102890000021364800F05CFB0446092C08D0204695
:1028A00084E7FFF72FFF0446092C01D020467DE77F
:1028B00059E036B9FFF726FF0446092C4AD02046D6
:1028C00074E74FF6FF7086420CD1294800F024F9D6
:1028D00090BB0221182000F0C3FA0446092C39D01D
:1028E000204663E700251BE02148C088A84201D1AB
:1028F0000FFA85F94D4511D01E49284600F0A6F87B
:102900008046B8F1010F09D01A480188284600F026
:10291000CDF80746092F01D0384647E7681C85B235
:10292000B5F5806FE0DB0021114800F011FB044693
:10293000092C02D0204639E70CE00C4800F0ECF8F6
:1029400040B90221102000F08BFA0446092C01D076
:1029500020462BE707E0FFF7D5FE0446092C01D0FF
:10296000204623E700BF00BF09201FE700800008C2
:1029700000C000087E0000202DE9F84F0746894678
:102980000924DFF8BCA00020009080460025002626
:102990008346FFF78BFE8046B8F1010F03D100BFDD
:1029A000182000900AE0B8F1000F04D1DFF894A0DD
:1029B0001020009002E0AB20BDE8F88F4EF6EE61EB
:1029C000504600F0C5FA0446092C01D02046F3E732
:1029D0004946384600F06AF80646092E01D03046CE
:1029E000EAE7002515E0BD4211D01749284600F05E
:1029F0002DF88346BBF1010F09D013480188284602
:102A000000F054F80646092E01D03046D4E7681C81
:102A100085B2B5F5806FE6DB0221009800F020FA60
:102A20000446092C01D02046C6E70021504600F09C
:102A30008FFA0446092C01D02046BDE72046BBE7AB
:102A40000080000800C000087E0000202DE9F0474B
:102A500006460F46002445F255584FF00109124D25
:102A6000AA460020FFF722FE0446AB2C01D1BDE8A8
:102A7000F0870D4800EB843A601C0B49891E01EB7E
:102A800080350AE0B5F80080B04505D135F8020C74
:102A900038804FF0000904E02D1F0AF10200854242
:102AA000F0D800BF4846E2E7008000082DE9F04773
:102AB0000646884609270025154CDFF85890012066
:102AC000FFF7F4FD0546AB2D01D1BDE8F0871048B6
:102AD00000EB8534681C0E49491E01EB803913E078
:102AE0002068401C78B94146204600F031FA07467C
:102AF000092F01D03846E8E73146A01C00F028FA3B
:102B000007463846E1E7241D4C45E9D38020DCE741
:102B10000080000800C000080146012245F255531C
:102B200007E00B884FF6FF70834201D0002203E0DC
:102B3000091D03488142F4D900BF90B270470000DC
:102B4000FFBF000870B505460E46002431462846F2
:102B5000FFF7ACFF0446802C04D131462846FFF72E
:102B60000BFF0446204670BD3EB5394A07CA8DE8C2
:102B7000070038480088401C36490880084600880D
:102B8000000A8DF80300084600788DF804003248EA
:102B9000C0798DF807003048007A8DF808002E487B
:102BA000407A8DF809002C48807A8DF80A009DF84B
:102BB00008009DF8071040EA01259DF80A009DF8DD
:102BC000091040EA012425488088A04211D02448F9
:102BD000007830B902220DF109015E20FFF753FDA4
:102BE00005E002220DF109015E20FEF775F81B4891
:102BF00084801A48C088A84211D01948007830B99A
:102C000002220DF107015C20FFF73DFD05E00222E5
:102C10000DF107015C20FEF75FF81048C5800C211C
:102C2000684603F0CDFFC0B28DF80B000A4840792A
:102C30002E2806D10C21684608F088F901200949A0
:102C400008700648C288818807A008F003FA3EBDD4
:102C5000CCE40108A00000201411002088310020DD
:102C6000040000209E000020454F4C5F436F6E66BD
:102C700069673A2055565F454F4C5F5741524E4960
:102C80004E47203D2025642055565F454F4C5F4DF3
:102C90004158494D554D203D2025640D0A00000046
:102CA00010B54FF4807000F053F810B119A008F07F
:102CB000D1F94FF480711E4800F028FA68B11D4820
:102CC000007810BB1C480078F8B901201949087039
:102CD00002F09AFA1949086017E0164800780128AE
:102CE00013D100201349087002F08EFA14490860CD
:102CF0000846006811490968884203D100200E493E
:102D0000087002E001200C4908704FF4807000F058
:102D100019F810BD456E7465722045585449395FE5
:102D2000355F49525148616E646C65720D0A00004E
:102D30000008024021000020220000202400002082
:102D4000280000200149086070470000143C014041
:102D500001460020034A12680A400AB1012000E03F
:102D600000207047143C0140002123498279002A49
:102D70003AD00A46126803689A430B461A600A1D45
:102D8000126803689A430B1D1A60027911440A689D
:102D900003681A430A60184A0832126803689A43A3
:102DA000154B08331A601A1D126803689A43124BB8
:102DB0000C331A604279102A0ED11A1F1268036868
:102DC0001A430D4B08331A601A1D126803681A4320
:102DD000094B0C331A600DE00749427911440A6827
:102DE00003681A430A6005E0027911440A6803681F
:102DF0009A430A6070470000003C01401CB5012165
:102E0000042001F065FE4FF408510B4800F087F9EB
:102E10004FF40850009001208DF8040000208DF838
:102E2000060003208DF8050000208DF80700694694
:102E3000014800F000F91CBD0008024030B107490C
:102E4000096841F48061054A116005E00349096899
:102E500021F48061014A116070470000003C02408B
:102E600070B504460A460026092502B909E0012A80
:102E700001D1160205E0022A01D1160201E04FF449
:102E8000407600F0C7F80546092D28D1154800689E
:102E900020F4407013490860084600683043086019
:102EA0000846006820F0F80008600846006844F012
:102EB000020108430B4908600846006840F480306E
:102EC000086000F0A7F805460648006820F00200F8
:102ED000044908600846006820F0F80008602846A9
:102EE00070BD0000103C024009201349096801F43C
:102EF0008031B1F5803F01D101201CE00E49096805
:102F000001F0100109B1062015E00B49096801F430
:102F1000807109B102200EE00749096801F0EF0154
:102F200009B1072007E00449096801F0020109B16D
:102F3000082000E0092070470C3C0240034800686C
:102F400040F000400149086070470000103C02401A
:102F500030B502460C46092500F05CF80546092DFF
:102F600019D10E48006820F440700C4908600846EA
:102F7000006840F4807008600846006840F0010076
:102F80000860148000F046F805460448006820F008
:102F9000010002490860284630BD0000103C024094
:102FA00030B502460C46092500F034F80546092DD7
:102FB00019D10E48006820F440700C49086008469A
:102FC000006840F4007008600846006840F00100A6
:102FD0000860146000F01EF805460448006820F000
:102FE000010002490860284630BD0000103C024044
:102FF0000548006800F0004028B1044802490C3937
:103000000860034808607047103C02402301674590
:10301000AB89EFCD08B509200090FFF765FF009060
:1030200002E0FFF761FF00909DF800000128F8D052
:103030009DF8000008BDF0B50A46002100230024D9
:1030400000BF3DE0012505FA01F3156805EA030418
:103050009C4234D105684F000326BE40B54305604D
:1030600015794E00B5400668354305601579012D88
:1030700002D01579022D16D185684F000326BE4077
:10308000B543856055794E00B54086683543856007
:10309000456801268E40B5434560456896798E4067
:1030A000B6B235434560C5684F000326BE40B54300
:1030B000C560D5794E00B540C6683543C560491C2A
:1030C0001029BFD3F0BDF0B5002300244D07ED0E4D
:1030D00002FA05F3CE1000F1200555F826504E07F0
:1030E000F70E0F26BE40B543CF1000F1200646F87C
:1030F0002750CE1000F1200555F8265045EA03046C
:10310000CE1000F1200545F82640F0BD0246002013
:1031100013690B400BB1012000E000207047418390
:10312000704701837047000030B52DED068B85B0E8
:10313000142236496846FDF7B5F800F063FA0546F3
:10314000FDF790FA41EC1A0B9FED310B53EC102B6D
:10315000FDF7A7F941EC190BFDF7EDFA08EE100A9F
:10316000B2EE040A28EE000AF2EE040A80EE201AFB
:10317000BDEEC10A10EE100A04B2274800788DF89F
:103180000700264800788DF8080000208DF8090017
:1031900004F11400C0B28DF80A00214800788DF8BF
:1031A0000B001F4840788DF80C001E4800788DF801
:1031B0000D001C4840788DF80E001B4800788DF8F3
:1031C0000F001A480088401C1849088008460088EB
:1031D000000A8DF80300084600788DF804001121DC
:1031E000684603F0EDFCC0B28DF81000104840793D
:1031F000202806D11121684607F0A8FE01200D49BC
:10320000087005B0BDEC068B30BD000058E4010825
:10321000000000000000C03F20000020A5000020AA
:103220001800002016000020A2000020A0000020AE
:10323000141100209E0000203EB5264A07CA8DE8E2
:1032400007000024002524480088401C22490880EB
:1032500008460088000A8DF80300084600788DF8BB
:1032600004000921684603F0ABFCC0B28DF80800E9
:103270000921684607F06AFE01201849087014E029
:103280001648007800B912E007F07EFE40B13246E1
:103290001349144807F09CFE00201349086000BF42
:1032A000601CC4B20A2008F02DFCC82CE8DB00BF6B
:1032B000C82C0ADA0D4840790B2806D10B48007A51
:1032C0000A49C97940EA012502E009A007F0C2FED7
:1032D00028463EBD4CE40108A00000209E000020CE
:1032E0000C10002018020020000000201411002003
:1032F00047657420626C65206669726D77617265DE
:103300002076657273696F6E2074696D656F757470
:10331000210D0A00FEB50546274A07CA8DE80700B9
:10332000002626480088401C24490880084600885A
:10333000000A8DF80300084600788DF80400092182
:10334000684603F03DFCC0B28DF8080009216846CC
:1033500007F0FCFD01201A49087014E018480078B5
:1033600000B912E007F010FE40B13A461549164880
:1033700007F02EFE00201549086000BF701CC6B281
:103380000A2008F0BFFBC82EE8DB00BFC82E0EDA0B
:103390000F4840790A280AD1002405E0E01D0C49B5
:1033A000085C2855601CC4B2062CF7DB02E0002044
:1033B0002860A880FEBD000040E40108A0000020B5
:1033C0009E0000200C1000201802002000000020A9
:1033D0001411002070B52B480078002819DD294809
:1033E000007808300AF008FC044626480078A071EE
:1033F000244800780830C6B2002505E02248415D27
:10340000E81D2154681CC5B21E4800788542F5DBD2
:1034100008E009200AF0F0FB04460120A07100201A
:10342000E071092655202070AA2060700120A0704C
:1034300016480088401C1549088008460088000A84
:10344000E0700846007820712920607131462046DE
:1034500003F0B6FBC1B2701E21540D4840792928F3
:1034600009D10CA007F0F6FD3146204607F06EFDAD
:1034700001200E490870052008F044FB204608F0A2
:1034800061FE70BDAB000020A2310020A000002032
:10349000141100206765745F506C616E2072657353
:1034A000706F6E7365206F6B0D0A00009E00002028
:1034B00070B50A480468001D0568001D066834449C
:1034C00054B108220649204600F0CCFA04220449EF
:1034D0001031284600F0C6FA70BD0000107AFF1FB8
:1034E0001601002010B52DED068B84B025A2D2E97F
:1034F00000109268CDE90202019125A007F0AAFD13
:1035000026480088401C2549088008460088000A93
:103510008DF80700084600788DF8080000F072F872
:103520000446FDF79FF841EC1A0B9FED1D0B53EC81
:10353000102BFCF7B6FF41EC190BFDF7FCF808EE79
:10354000100AB3EE040A38EE000ABCEEC00A10EE10
:10355000100AC0B28DF80C000A2101A803F030FB5C
:10356000C0B28DF80D0010484079272806D10A21F5
:1035700001A807F0EBFC01200C49087004B0BDEC79
:10358000068B10BD55AA0100FF27020000000000B5
:103590004765745F54656D700D0A0000A00000203F
:1035A000000000000000C03F141100209E00002019
:1035B0000EB5104A07CA8DE807000F480088401C66
:1035C0000D49088008460088000A8DF80300084667
:1035D00000788DF804000921684603F0F1FAC0B2C2
:1035E0008DF808000921684607F0B0FC0120034966
:1035F00008700EBD34E40108A00000209E000020E9
:1036000000BFFEE770B500240025002600F024F975
:103610001448007800F0EAF800F06EF9002000F09D
:10362000E5F800F069F900F017F90F48007800F0AC
:10363000DDF800F061F9012000F0A2F80546002055
:1036400000F09EF8064600F02DF946EA05204411E8
:1036500004F4806018B1E043401C404204B22046AC
:1036600070BD00002F0000203000002010B50020A9
:103670000F4908600F48006820F440200D49086099
:103680000846006840F48020086000200A49C1F81C
:10369000A402022008F052FA012005490860022025
:1036A00008F04CFA00200449C1F8A00210BD000047
:1036B000A082404200040240008040421CB501212B
:1036C000062001F005FA4FF44070009001208DF8BB
:1036D000040000208DF8060003208DF8050001206D
:1036E0008DF8070069461048FFF7A5FC4FF44071BC
:1036F0000D48FFF716FD4FF40060009001208DF893
:10370000040000208DF8060003208DF8050001203C
:103710008DF8070069460548FFF78DFC4FF40061FE
:103720000248FFF7FCFC1CBD0004024000080240F8
:1037300010B500200F4908600F48006820F44020B1
:103740000D4908600846006840F4802008600120A8
:103750000A49C1F8A402022008F0F0F90120054945
:103760000860022008F0EAF900200449C1F8A0022C
:1037700010BD0000A0824042000402400080404290
:1037800070B5054600241648006820F4402014490E
:103790000860084600680860002616E0002011490D
:1037A0000860022008F0CAF901200F49C1F8A00200
:1037B0006006040E0B487C38006808B1601CC4B277
:1037C000022008F0BBF9701CC6B2082EE6DB15B962
:1037D000FFF7AEFF01E0FFF749FF204670BD000094
:1037E00000040240A08240420080404270B504467E
:1037F0001648006820F44020144908600846006814
:1038000040F480200860002011490860012008F081
:1038100095F9002517E0E0090D49091D08606006CB
:10382000040E012008F08AF901200A49C1F8A0021B
:10383000022008F083F9002005490860012008F003
:103840007DF9681CC5B2082DE5DB70BD000402409F
:10385000A08240420080404210B50F48006820F42A
:1038600040200D4908600846006840F48020086048
:1038700001200A4908600A49C1F8A002022008F0A4
:103880005DF9002005490860022008F057F9002082
:103890000349C1F8A00210BD00040240A4824042C6
:1038A0000080404210B51148006820F440200F49C4
:1038B00008600846006840F48020086000200C4939
:1038C00008600C49C1F8A402042008F037F901206F
:1038D00007490860022008F031F901200549C1F8C4
:1038E000A402042008F02AF910BD000000040240E0
:1038F000A08240420080404210B500241348006876
:1039000020F4402011490860084600680860012042
:103910000F49086008F012F901200E49C1F8A00211
:1039200008F00CF907E0601CC4B2FA2C03DDFFF7C5
:10393000B9FF012010BD0648803800680028F2D188
:103940000349091F086000BFF4E7000000040240BB
:10395000A4824042008040424CF6CC4001490860BD
:10396000704700000030004010B500F013F810BDA3
:1039700070B505460C4645F2555000F01FF8284634
:1039800000F010F8204600F013F800F003F8FFF7FD
:10399000E3FF70BD4AF6AA200149086070470000A5
:1039A000003000400149486070470000003000408E
:1039B00001498860704700000030004001490860FC
:1039C00070470000003000400EB517A207CA8DE80E
:1039D000070018480088401C1649088008460088DF
:1039E000000A8DF80300084600788DF804000921CC
:1039F000684603F0E5F8C0B28DF808000E4840793B
:103A00002F280CD10D48007810B90DA007F022FB2B
:103A10000921684607F09AFA01201149087003202D
:103A200000F0B0FA0EBD000055AA0100FF2F000003
:103A300000000000A000002014110020A3000020BE
:103A400073656E64206964656E746966795F646528
:103A50007669636520726573706F6E73650D0A0019
:103A60009E00002030B50B46002100BF16E00A245E
:103A7000B4EB107F05D9302404EB107403F8114027
:103A800005E0412404EB10740A3C03F811400001E6
:103A900000254C00641C1D554C1CE1B29142E6DB34
:103AA00030BD000000B585B00121062001F010F8FE
:103AB0000121880301F03CF84FF48070039000204E
:103AC0008DF8100003208DF8110000208DF81300F0
:103AD00003A91748FFF7AFFA8020039000208DF864
:103AE000130003A91348FFF7A6FA0821022002F0E9
:103AF000A7FA4FF48070009000208DF80400102089
:103B00008DF8050001208DF806006846FFF72CF9B6
:103B100017208DF8080000208DF8090001208DF88D
:103B20000A008DF80B0002A800F044FC05B000BDAF
:103B30000008024000040240F8B50026A6480078BC
:103B4000012809D1A548007818B90020A4490870B7
:103B500002E00120A2490870A248007801287FD124
:103B6000A1480068A1490968441A2146A0A007F0AD
:103B700071FA0A2C34DBA348007E01282CD1A2481C
:103B80000078012824D100260DE00AF0CDFA4FF488
:103B9000FA7007F0B7FF0AF0ABFA4FF4FA7007F0CB
:103BA000B1FF701CC6B2032EEFDB00F009FD974891
:103BB000007810B9012000F09DFB012094490870A5
:103BC000FDF7C6F807F030FF0120924908703DE08C
:103BD00091A007F03FFA39E09FA007F03BFA35E0EB
:103BE0000A2C08DA052C06DB8648807C18B10320F5
:103BF00000F0C8F92AE0012C28DB032C26DC8148E0
:103C0000807C18B37F48007E01281FD19BA007F05D
:103C100021FA07F009FF7D48007810B9012000F073
:103C200069FB09209E499F4A127801F8320001F091
:103C3000EBFA05469A489B49097800EBC1004560BC
:103C400098480078401C9749087000BF00206549DB
:103C50000870654908606549086000E000E000BF41
:103C600091480078012829D100208F4908708F4899
:103C700000788DF801008D480088000A8DF800005A
:103C80009DF800008A4908709DF801004870894835
:103C9000007828B9022269467020FEF7F4FC04E09F
:103CA000022269467020FDF717F8814843780278B0
:103CB0007E48018880A007F0CDF900BF87480078D2
:103CC000012829D1002085490870854800788DF8A1
:103CD000010083480088000A8DF800009DF800006C
:103CE000804908709DF8010048707248007828B932
:103CF000022269467220FEF7C6FC04E002226946F1
:103D00007220FCF7E9FF774843780278744801880D
:103D100075A007F09FF900BF7C480078C0B17C48CF
:103D20000078012814D17B48006888B17A4800687F
:103D300070B17A48007858B979480078012802D1E2
:103D40000AF008F804E077A007F084F909F08AFF88
:103D50007A48008840F60F01084058B92948C088C1
:103D600052490988884205DB2648C0885C49098891
:103D7000884209DA2748007801282CD002202549FA
:103D800008700AF0B5F926E022480078022822D10E
:103D90006B48007830B101280AD006280ED00728D9
:103DA00018D111E009201B4908700AF069F911E0E7
:103DB0000020184908700AF0B7F90BE008201549EF
:103DC00008700AF079F905E00020124908700AF03D
:103DD000ABF900BF00BFF8BD21000020AC000020FF
:103DE0001F000020220000202800002024000020C6
:103DF0006B65792070726573736564202564207328
:103E0000200D0A00883100201B0000202000002027
:103E100011000020C40000204F766572203330303E
:103E200073207061737365642061667465722073BA
:103E3000797374656D20626F6F742C2063616E20DE
:103E40006E6F7420726573657420424C45206D6FEF
:103E500064756C650D0A00004465766963652068C9
:103E60006173206265656E20616C726561647920A2
:103E7000756E7061697265640D0A00004D616E7542
:103E8000616C5F5475726E5F4F66665F42795F5218
:103E900065736574427574746F6E0D0A00000000DE
:103EA000E0310020C100002050000020B8000020B8
:103EB00016000020040000205556312077726974E6
:103EC00065207375636365737366756C3A25642C3E
:103ED000253032582C253032580D0A005100002070
:103EE000BA000020180000205556322077726974FD
:103EF00065207375636365737366756C3A25642C0E
:103F0000253032582C253032580D0A00AD000020E3
:103F100052000020008240420C024142C5000020B5
:103F2000A20000206B65795F7363616E206F70651E
:103F30006E206C616D70203A200000000C000020A3
:103F4000A50000201CB50121062000F0C1FD4FF4A2
:103F50008460009001208DF8040000208DF8060098
:103F600003208DF8050001208DF8070069460448FC
:103F7000FFF761F84FF484610148FFF7D2F81CBDE8
:103F80000008024070B5044615480678062014491A
:103F9000087000250DE00AF0C7F84FF4FA7007F03A
:103FA000B1FD0AF089F84FF4FA7007F0ABFD681C18
:103FB000C5B2A542EFDB0AF0B7F84FF4FA7007F08C
:103FC000A1FD074806700078082802D10AF074F8AD
:103FD00005E003480078092801D10AF051F870BDC6
:103FE000C40000200EB5284A07CA8DE807002748FC
:103FF0000088401C2549088008460088000A8DF882
:104000000300084600788DF80400214800788DF8F8
:1040100007001F4840788DF808001E4800788DF88A
:1040200009001C4840788DF80A001B48C079012817
:1040300009D100208DF807008DF80800002101202B
:1040400002F094FB0CE01448C079022808D100204B
:104050008DF809008DF80A000021084602F086FB61
:104060000C21684602F0ACFDC0B28DF80B000A4886
:104070004079252806D10C21684606F067FF01200B
:10408000064908700EBD000090E40108A000002061
:104090001800002016000020141100209E000020AF
:1040A0002DE9F04190B004460D4617461E46DDF856
:1040B00058801A48844204D90121880500F008FD7F
:1040C00003E00121480500F003FD2046FDF77EFDD9
:1040D00000BF2046FDF726FE0028FAD10195029781
:1040E00003960490CDF8148006904FF480600790FA
:1040F0000020089009904FF480700A9000020B9005
:1041000000200C9003200D9000200E900F9001A92C
:104110002046FDF715FE10B0BDE8F08100640240B6
:1041200070B504460D4600212046FDF743FD00BF53
:104130002046FDF7F7FD0028FAD129462046FDF775
:104140002BFE01212046FDF735FD70BD1FB5284A25
:1041500007CA01AB07C327480088401C25490880CF
:1041600008460088000A8DF80700084600788DF898
:1041700008002148C0798DF80B001F48007A8DF89F
:104180000C001D48C0798DF800001B48007A8DF89E
:1041900001001948007A1849C97900EB012084B25E
:1041A0001648808AA0420FD01548007828B902220C
:1041B00069466A20FEF767FA04E0022269466A202F
:1041C000FCF78AFD0D4884820A2101A802F0F8FC60
:1041D000C0B28DF80D00084840792C2806D10A217C
:1041E00001A806F0B3FE0120064908701FBD0000BB
:1041F000B4E40108A0000020141100208831002040
:10420000040000209E0000200EB52A4A07CA8DE84F
:10421000070029480088401C274908800846008874
:10422000000A8DF80300084600788DF80400234842
:10423000C0798DF807009DF8070018B900202049C3
:10424000087005E09DF80700012801D11C4908709D
:104250001C48807C1A490978884213D01848007895
:10426000184988741848007830B901221349C91DCB
:104270006920FEF708FA05E001221049C91D6920EE
:10428000FCF72AFD0921684602F09AFCC0B28DF8BD
:1042900008000A4840792B2806D10921684606F013
:1042A00055FE0120094908700548017808A006F06C
:1042B000D1FE0EBDA8E40108A000002014110020CA
:1042C000AC00002088310020040000209E00002067
:1042D0004D616E75616C5F4D6F6465203A2073634C
:1042E000686564756C655F666C6167203D20256458
:1042F0000D0A000010B5044608480470084800780C
:1043000028B9012205497420FEF7BDF904E0012215
:1043100002497420FCF7E0FC10BD000020000020E2
:104320000400002000BFFEE73EB541F6FF74012106
:10433000080700F0EDFB012000F076F9002000F006
:104340001DFE45F25001884231D0012000F094FC5E
:1043500004E0601C84B20A2007F0D4FB412000F086
:104360006BFC0028F5D00CB901203EBD4FF48070E5
:1043700000F09EFC012000F095FC7F200190FF20C2
:10438000029000200090684600F0C6FD002338220D
:1043900013210F2000F0EEFE012305221146142008
:1043A00000F0D6FE45F25001002000F0EDFF0020A5
:1043B000DBE7704770B5002100230F22C4781CB3DF
:1043C000174C246804F4E064C4F5E064C4F30721E6
:1043D000C1F10404E3B20A4144789C40E1B284781C
:1043E000144021430C07210E0E4C057861550478CA
:1043F00004F01F050124AC4005786D11AD0005F1F6
:10440000E025C5F8004109E0047804F01F05012407
:10441000AC40054D0678761145F8264070BD000089
:104420000CED00E000E400E080E100E0024901431F
:10443000024A1160704700000000FA050CED00E030
:104440000EB515A207CA8DE8070016480088401C63
:104450001449088008460088000A8DF803000846C1
:1044600000788DF8040000208DF8070001208DF8F9
:1044700008000A21684602F0A3FBC0B28DF80900CB
:1044800009484079062806D10A21684606F05EFDF3
:104490000120064908700EBD55AA0100FF06020062
:1044A00001000000A0000020141100209E00002048
:1044B00045F2AA50214908602148C07900062049E8
:1044C000097A00EB01401E49497A00EB01201C49A2
:1044D000897A0844194988601020486112211748D8
:1044E00081611748C07A1549C8611548017B134896
:1044F00001621348407B00061149897B00EB0140B3
:104500000F49C97B00EB01200D49097C08440B4988
:10451000C86009220B4801F045FD00BFBFF34F8F73
:104520000948006800F4E06008490843001D064996
:104530000860BFF34F8F00BF00BFFEE71C310020B3
:1045400014110020000003080CED00E00000FA0543
:1045500010B5024805F092F810BD000018020020C6
:1045600010B50948807A50B10848006820F006006C
:104570000649086002F050FB034806F09CFB4FF42C
:104580008020FEF7DFFB10BD1802002010ED00E0D8
:104590001CB50121042000F09BFA022000900020AD
:1045A0008DF8040003208DF8050000208DF8070029
:1045B00069460248FEF73FFD1CBD000000080240AE
:1045C00010B516480078002826DD1448047800202D
:1045D000124908703C211248FBF77DFE1148007813
:1045E00050B901220D497F20FEF74DF822460C49B3
:1045F0008020FEF748F80CE0012208497F20FCF7F4
:104600006BFB052007F07EFA224605498020FCF767
:1046100063FB00200149087010BD0000AB000020C2
:10462000A231002004000020014908627047000008
:1046300000000E42704700001FB537A207CA01AB49
:1046400007C338480088401C364908803648C0797E
:104650008DF80B003448C07900909DF80000642864
:1046600027DC3248807D9DF80010884221D09DF8DB
:1046700000002E4988759DF800004FF4E171A1EB10
:1046800080002B4908802948817D2948028829A07B
:1046900006F0E0FC3548007828B9012269466C2014
:1046A000FDF7F1FF0CE0012269466C20FCF714FBDA
:1046B00006E02F4806F0CEFC1C48807D8DF80B00EC
:1046C00018480088000A8DF80700164800788DF811
:1046D0000800092101A802F073FAC0B28DF80C009D
:1046E00024480078062804D109F01EFD09F0E4FCF6
:1046F00006E02048007818B909F016FD09F0C0FC62
:1047000009484079312806D1092101A806F01EFC8C
:104710000120194908701FBD55AA0100FF31010091
:1047200000000000A00000201411002088310020AB
:10473000A60000205365742050696C6F745F4C6153
:104740006D705F6272696768746E6573733D25642E
:104750002C2070696C6F745F6C616D705F76616C3A
:1047600075653D2564200D0A00000000040000204E
:104770007CE60108A50000209E00002010B52DED6C
:10478000048B84B000243F4A07CA01AB07C33E48EC
:104790000088401C3C49088008460088000A8DF8C3
:1047A0000700084600788DF80800384880793849B5
:1047B000087038A006F04EFC00BF0BE0E01D334946
:1047C000085C384908550846015D37A006F042FCF0
:1047D000601C84B22E4800788442EFDB35A006F0DE
:1047E00039FC3548007858B9012229497F20FDF766
:1047F0004AFF274802782B498020FDF744FF0DE04F
:10480000012223497F20FCF767FA052007F07AF997
:104810001F48027823498020FCF75EFA092101A88D
:1048200002F0CEF9C0B28DF80C0018484079282863
:1048300006D1092101A806F089FB01201F49087053
:10484000642007F05FF91E490889FBF71CFF41EC63
:10485000190B9FED1C0B53EC102BFBF722FE41ECC8
:10486000180BFBF73CFF1949088001201849087014
:104870000020184908701849087004B0BDEC048B7A
:1048800010BD00009CE40108A000002014110020CD
:10489000AB0000207363686564756C655F76616C5E
:1048A00075653A00A231002020307825303258203A
:1048B000000000000D0A0000040000209E000020FF
:1048C00088310020000000000000F83F4C0000206C
:1048D00053000020B60000201F0000200EB515A2D6
:1048E00007CA8DE8070016480088401C1449088054
:1048F00008460088000A8DF80300084600788DF805
:104900000400104890F844008DF80700092168461B
:1049100002F056F9C0B28DF808000B484079A02883
:1049200003D10921684606F011FB012007490870F0
:104930000EBD000055AA010000A00100000000000B
:10494000A000002040310020141100209E00002013
:104950002DE9F04190B044A2D2E900109268CDE96F
:104960000E020D912C2102A8FBF7B5FC4148006C0A
:1049700008B9414C01E03F48046C3E48006C3F4997
:10498000B0FBF1F201FB12063A48006C42F21071E2
:10499000B0FBF1F201FB12073648006CB0FBF1F8F6
:1049A00033463A46414636A006F054FB42F21070B8
:1049B000B4FBF0F0A0F26C70079042F21070B4FB00
:1049C000F0F100FB11406421B0FBF1F0401E0690B5
:1049D0006420B4FBF0F100FB11400590002004902E
:1049E0000390029002A8FBF709FC2A49B1F90010D4
:1049F0004FF4616202FB110505980090214626A044
:104A0000DDE9063206F026FB2E480088401C2D49C1
:104A1000088008460088000A8DF8370008460078AC
:104A20008DF83800280E8DF83B00280C8DF83C00DE
:104A3000280A8DF83D00E8B28DF83E000C210DA843
:104A400002F0BEF8C0B28DF83F001F484079A1289F
:104A500003D10C210DA806F079FA01201B4908703A
:104A600010B0BDE8F081000055AA010000A10400CB
:104A70000000000040310020B561340140420F00C9
:104A8000546573743A2025642025642025640D0A3A
:104A900000000000BE000020574152532054696DB1
:104AA00065206973203A20256420596561723D258F
:104AB00064204D6F6E3D2564204461793D25640D71
:104AC0000A000000A0000020141100209E00002019
:104AD00029B1064A12680243044B1A6004E0034AF3
:104AE00012688243014B1A60704700003038024060
:104AF00029B1064A12680243044B1A6004E0034AD3
:104B000012688243014B1A6070470000343802403B
:104B100029B1064A12680243044B1A6004E0034AB2
:104B200012688243014B1A6070470000403802400F
:104B300029B1064A12680243044B1A6004E0034A92
:104B400012688243014B1A607047000044380240EB
:104B5000F0B5002100220024022500260223324F56
:104B60003F6807F00C0121B1042905D0082937D18D
:104B700005E02E4F076036E02D4F076033E02A4FE7
:104B80003F1F3F68C7F38056274F3F1F3F6807F01E
:104B90003F036EB1264FB7FBF3F7DFF88CC0ACF1E3
:104BA000040CDCF800C0CCF3881C07FB0CF40CE010
:104BB0001E4FB7FBF3F7DFF870C0ACF1040CDCF864
:104BC00000C0CCF3881C07FB0CF4174F3F1F3F6855
:104BD000C7F301477F1C7D00B4FBF5F7076002E0D7
:104BE000124F076000BF00BF0F4F3F6807F0F00192
:104BF0000909104F7A5C0768D74047600A4F3F6841
:104C000007F4E051890A0B4F7A5C4768D740876008
:104C1000054F3F6807F46041490B064F7A5C4768CF
:104C2000D740C760F0BD0000083802400024F400FF
:104C300040787D018D00002010B501460022002340
:104C400000204A11012A02D10A4C236808E0022AF6
:104C500003D1084C7034236802E0064C7434236896
:104C600001F01F02012494401C400CB1012000E01F
:104C7000002010BD003802400021094A1170117057
:104C8000012802D0042808D103E00121044A117050
:104C900004E00521024A117000E000BF00BF704728
:104CA0007038024001490860704700003C0E4742DE
:104CB000002100F44072B2F5407F08D1094A116822
:104CC00021F4F811084A02401143064A1160054ACE
:104CD00068321268C0F30B031A43024B68331A6040
:104CE0007047000008380240FFFCFF0F10B54FF47A
:104CF000807000F0A3F8012805D1000200F028F828
:104D000003A006F0A7F94FF40030FEF71BF810BD22
:104D1000414C41524D2041210D0A0000014600BF87
:104D2000080900EB8000420001F00F001044C0B2FF
:104D300070470146002204E0501CC2B2A1F10A00F3
:104D4000C1B20A29F8DA100741EA10607047000082
:104D500081B241F08001044A126802F0800262EAE6
:104D60000101014A116070470C280040002101092F
:104D70008AB242F08002044B1B6803F0800363EAAE
:104D80000202014B1A6070470C28004008B500224F
:104D9000009200200021104A126802F04002CAB9B5
:104DA000421E0D4B1A6000BF0B4A126802F0400110
:104DB000009A521C0092009AB2F5803F01D000295F
:104DC000F2D0054A126802F040020AB1012002E066
:104DD000002000E0012008BD0C28004003480068C6
:104DE00020F0800001490860704700000C28004056
:104DF00070B506460C4600250E4800680E4900EACC
:104E00000105280CE070C5F30420607005F03F0038
:104E1000A070C5F3423020705EB9E078FFF77EFFE6
:104E2000E0706078FFF77AFF6070A078FFF776FF98
:104E3000A07070BD042800403FFFFF0010B5014680
:104E400000200022054B1B68054C03EA040202EA1D
:104E500001030BB1012000E0002010BD0C28004030
:104E60007F3F010070B506460C4600250F480068DC
:104E70000F4900EA0105C5F305402070C5F306207F
:104E8000607005F07F00A07005F48000000CE070F9
:104E90005EB92078FFF742FF20706078FFF73EFF91
:104EA0006070A078FFF73AFFA07070BD0028004046
:104EB0007F7F7F00CA22174B1A6053221A6091B17C
:104EC000144A1C3A126820F004031A43114B1C3B8D
:104ED0001A60104A1C32126800F004031A430D4B8A
:104EE0001C331A6011E00B4A1C3A126820F00403CC
:104EF0009A43084B1C3B1A60064A1C32126800F0A9
:104F000004039A43034B1C331A60FF22014B1A60BF
:104F1000704700002428004030B504460025CA2010
:104F20001549086053200860FFF730FF00B91DE005
:104F300011481C38006820F040000F491C390860F7
:104F400008460068216808430B491C3908600A4973
:104F50001439A068086008460068A18840EA01404A
:104F6000054914390860FFF739FF0125FF20024980
:104F70000860284630BD00002428004008B50146DE
:104F80000020009004480090009800EB8100009001
:104F90000098006808BD0000502800402DE9F0414D
:104FA00005460C46002600274DB9607800F0100039
:104FB000102804D1607820F010000A30607005B924
:104FC00008E06078FFF7AAFE0646A078FFF7A6FE85
:104FD000064600BF55B1E0780004617840EA012040
:104FE000A1780843217840EA413611E0E078FFF7E4
:104FF000A0FE4FEA00486078FFF79BFE48EA0028D1
:10500000A078FFF796FE48EA0008207848EA403684
:10501000CA201249086053200860FFF7B7FE08B99C
:10502000002714E00E4830400C4920390860FFF793
:10503000D5FE0A481C38006800F0200030B900F0A6
:105040001FF908B9002702E0012700E00127FF202F
:10505000024908603846BDE8F0810000242800407D
:105060003FFFFF002DE9F04105460C4600260027D2
:105070004DB92E48006800F0400000B102E0002069
:10508000E07000BF0DE02948006800F0400020B14A
:105090002078FFF743FE064602E00020E07000BFE4
:1050A00000BF55B120780004617840EA0120A17862
:1050B0000843E17840EA014611E02078FFF739FE25
:1050C0004FEA00486078FFF734FE48EA0028A078ED
:1050D000FFF72FFE48EA0008E07848EA0046CA20B9
:1050E00012491C31086053200860FFF74FFE08B9D1
:1050F000002713E00E4830400C4908390860FFF7DC
:105100006DFE0A48006800F0200030B900F0B8F8E1
:1051100008B9002702E0012700E00127FF2003492A
:105120001C3108603846BDE8F081000008280040C6
:105130007F7F7F00CA21054A116053211160034916
:1051400010390860FF2111607047000024280040DA
:10515000F8B504460D4617461E468DF802708DF8C8
:1051600001508DF800608DF8034069460020FFF77C
:1051700015FFF8BDF8B504460D4617461E468DF8D6
:1051800000408DF801508DF802708DF8036069467B
:105190000020FFF767FFF8BD7CB505460C460020F0
:1051A00000F0B6F8284600F09BF82046FFF7C2FF53
:1051B0004FF48040FFF7DAFD4FF48000FDF7C2FDA9
:1051C00001218803FFF776FE012000F0A1F84FF4DB
:1051D0008000009000208DF8040008208DF8050064
:1051E00001208DF806006846FDF7BEFD0320054945
:1051F00008700220487088700120C8700846FFF7C8
:10520000D9F87CBD7A00002000B58DB06946002039
:10521000FFF728FE01A90020FFF7EAFD9DF807002F
:10522000643007909DF80500401E06909DF806002A
:1052300005909DF8000004909DF8010003909DF8F2
:105240000200029002A8FAF7D9FF0449B1F9001050
:105250004FF4616202FB11000DB000BDBE000020E2
:1052600010B54FF48060FFF7E9FD012802D18002FC
:10527000FFF76EFD4FF48000FDF764FD10BD0000E8
:1052800008B50022009200200021CA22134B1A60A8
:1052900053221A60114A183A126822F0A0020F4BEA
:1052A000183B1A6000BF0D4A183A126802F020013C
:1052B000009A521C0092009AB2F5003F01D00029DA
:1052C000F1D0064A183A126802F020020AB1012011
:1052D00000E00020FF22014B1A6008BD2428004096
:1052E000CA210A4A11605321116008491C39096812
:1052F00021F00701054A1C3A116011460968014373
:105300001160FF21014A116070470000242800400D
:1053100018B501460023009300220020CA23194C2F
:1053200023605323236049B1164B1C3B1B6843F495
:105330008063144C1C3C236001201FE0114B1C3B7C
:105340001B6823F480630F4C1C3C236000BF0D4B93
:10535000183B1B6803F00402009B5B1C0093009B3E
:10536000B3F5803F01D0002AF1D0064B183B1B68F3
:1053700003F004030BB9002000E00120FF23014CDF
:10538000236018BD2428004008B500220092044A7A
:105390000092009A02EB80020092009A116008BD10
:1053A000502800402DE9F84342A005F053FE4FF08D
:1053B0000008002679E044A005F04CFEFEF7F8F85E
:1053C000002569E047480078002860D14648007809
:1053D00000285CDD45484079042858D1434880794D
:1053E000062854D142A005F035FE4048C07A012875
:1053F00003D13E48007B474201E03C48077B4648DA
:10540000B0F9000087421ED0434807800088000A98
:105410008DF80000404800788DF801003E48B0F952
:1054200000103EA005F016FE4348007828B1022285
:1054300069465220FBF750FC04E0022269465220E4
:10544000FDF721F900BF2948C07900062749097AEC
:1054500000EB01402549497A00EB01202349897A74
:1054600044183648007830B92B48B0F9002021465E
:1054700033A005F0EFFD204605F01CFD4FF00108BC
:105480003748007810B901203549087006E00A2035
:1054900006F038FB681CC5B2C82D93DB00BFB8F11D
:1054A000010F00D103E0701CC6B2032E83DB00BFE6
:1054B000BDE8F883557064617465205254432054EC
:1054C000696D650D0A000000676574206C6F63618B
:1054D0006C2074696D652066726F6D206170700D4F
:1054E0000A0000009E0000208C0000201411002003
:1054F0005265636569766564206765745F74696D7C
:105500006520636F6D6D616E6420726573706F6E80
:1055100073650D0A00000000BE0000205570646134
:1055200074652054696D65205A6F6E6520746F2014
:1055300025640D0A0000000004000020A3000020E4
:105540005554432054696D65203D202564205469DD
:105550006D655F5A6F6E65203D2025640D0A000061
:10556000050000202DE9F0412DED068BADF5826D93
:1055700000240025FE48007830B14FF4806204A971
:105580000020FBF76EFB05E04FF4806204A90020C9
:10559000FDF754F8F7A005F05DFD002411E00025AB
:1055A00008E005EB041004AA115CF8A005F052FD18
:1055B000681CC5B2102DF4DBF7A005F04BFD601C94
:1055C000C4B2402CEBDB9DF81000FF2804D1F3A1FE
:1055D000F448FAF7A9FE03E0F249DDE9040205C147
:1055E0009DF82000FF2805D1EFA1EE480930FAF719
:1055F0009BFE08E0EB480930089901600999416079
:105600009DF8281001729DF82A00FF2805D1E9A114
:10561000E4481330FAF788FE06E00D220DF12A0166
:10562000E0481330FAF73EFE9DF83A00FF2805D116
:10563000E4A1DC482130FAF777FE0AE0D9482130AE
:10564000DDF83A100160DDF83E104160BDF842100F
:1056500001819DF84400FF2805D1DDA1D1482C30FF
:10566000FAF762FE05E0CF481199C162BDF8481013
:1056700001869DF84A00FF2805D1D5A1C9483330DD
:10568000FAF752FE07E0C7483330DDF84A100160F0
:10569000BDF84E1081809DF85000FF2803D10020F6
:1056A000C049C8630FE09DF8500000069DF85110F6
:1056B00000EB01409DF8521000EB01209DF85310C3
:1056C0000844B849C8639DF85800FF2803D1C24870
:1056D000B44908640FE09DF8580000069DF8591081
:1056E00000EB01409DF85A1000EB01209DF85B1083
:1056F0000844AC4908649DF86000012803D1A94919
:1057000081F8440003E00020A64981F844009DF898
:105710006100012802D1B149087002E00020AF49C0
:1057200008709DF863009DF8621040EA012006B2FF
:1057300016F10C0F04DB0C2E02DCA948068002E0F7
:105740000020A7490880A648B0F90010A5A005F0E0
:1057500081FC9DF86600FF2803D13220A64908701D
:1057600003E09DF86600A44908709DF86800FF28D2
:1057700003D13C20A049487003E09DF868009E4991
:1057800048709D48427801789CA005F063FC9DF824
:105790006A00FF2804D140F6B8309749488007E0F6
:1057A0009DF86B009DF86A1040EA012092494880FC
:1057B000914841889EA005F04DFC9DF86E00FF28A1
:1057C00004D140F654308C49888007E09DF86F0082
:1057D0009DF86E1040EA0120874988809DF86C0092
:1057E000FF2804D140F6B8308349C88007E09DF80F
:1057F0006D009DF86C1040EA01207F49C8807E480A
:10580000C288818890A005F025FC9DF87000FF28D3
:1058100004D14FF47A707849088107E09DF871004F
:105820009DF8701040EA0120734908817249088987
:10583000FAF729FF41EC1A0B9FED8E0B53EC102B5E
:10584000FAF7A1FE41EC190BFAF775FF0746FAF7D4
:105850005FFF41EC180B53EC182B88A005F0FAFB06
:1058600065490889FAF70FFF41EC190B9FED890B89
:1058700053EC102BFAF715FE41EC180BFAF72FFF3B
:10588000864908800F205C4948810A2008730F2050
:10589000C8810A200874002048749DF87900012806
:1058A00001D1887402E00020534988745248817CF9
:1058B0007BA005F0CFFB9DF87A00FF2803D10F20D5
:1058C0004D49888207E09DF87B009DF87A1040EAF8
:1058D0000120494988824848808A794908800846D9
:1058E000018878A005F0B6FB9DF87C00FF2803D165
:1058F0001E204149887503E09DF87C003E4988756B
:105900003D48807D4FF4E171A1EB80007349088030
:105910003948817D7148028871A005F09BFB9DF894
:105920007E00012802D13449C87502E000203249C6
:10593000C8753148C17D77A005F08CFB9DF87F00CC
:10594000012802D12C49087602E000202A49087675
:105950009DF87F1076A005F07DFB9DF88000FF2864
:1059600004D19DF88100FF2800D1EFE0F5E00000B0
:10597000040000205265616420454550524F4D207F
:10598000446174613A200D0A00000000203078253F
:1059900030325820000000000D0A0000616B657372
:1059A0006F00000040310020303030303030303077
:1059B000300000003030302D3030303030302D307D
:1059C000300000006162636465666768696A0000B0
:1059D0003030303030300000B5613401AA00002092
:1059E000BE00002074696D655F7A6F6E65203D2092
:1059F00025640D0A000000008831002054656D7098
:105A00005F5468726573685F5761726E696E672074
:105A10003D2025642054656D705F5468726573681D
:105A20005F4552524F52203D2025640D0A00000070
:105A300046414E5F53706565645F54687265736874
:105A4000203D2025640D0A0055565F454F4C5F5799
:105A500041524E494E47203D2025642C2055565F2B
:105A6000454F4C5F4D4158494D554D203D202564D3
:105A7000200D0A00000000000000244064757479C5
:105A80005F6379636C65203D20252E3166250D0A04
:105A900000000000000000000000F83F4C00002063
:105AA0004D616E75616C5F4B65795F456E61626CCF
:105AB000655F466C6167203D2025640D0A0000008B
:105AC000A80000204D616E75616C5F4F6E5F546978
:105AD0006D65203D2025640D0A000000A600002011
