:020000040800F2
:1000000020070020E9010008D90800082508000899
:10001000D5080008F7020008A31600080000000039
:10002000000000000000000000000000F50E0008C5
:10003000E104000800000000690900087D100008C4
:10004000311700080302000803020008290B00080A
:10005000030200080302000803020008030200086C
:10006000030200080302000803020008030200085C
:10007000030200080302000803020008030200084C
:10008000030200080302000803020008030200083C
:10009000030200080302000803020008030200082C
:1000A000E910000803020008030200080302000828
:1000B000030200081D110008A51100080302000832
:1000C00003020008030200080302000803020008FC
:1000D0000302000859140008030200080302000884
:1000E00003020008B50A0008030200080302000822
:1000F00003020008030200080302000803020008CC
:1001000003020008030200080302000803020008BB
:1001100003020008D11300080302000803020008CC
:10012000030200080302000803020008030200089B
:1001300003020008000000000000000003020008A5
:10014000030200080302000803020008030200087B
:10015000030200080302000803020008030200086B
:10016000030200080302000803020008030200085B
:100170000302000803020008030200080000000058
:100180000000000003020008000000000000000062
:100190000302000800000000000000000302000845
:1001A0000000000000000000000000000302000842
:1001B000030200080302000803020008030200080B
:1001C00003020008DFF80CD000F064F80048004794
:1001D0008D1D00082007002030BF72B6704762B640
:1001E000704780F3088870470648804706480047F4
:1001F000FEE7FEE7FEE7FEE7FEE7FEE7FEE7FEE7D7
:10020000FEE7FEE781100008C5010008D2B201E058
:1002100000F8012B491EFBD270470022F6E710B50B
:1002200013460A4604461946FFF7F0FF204610BD64
:100230002DE9F05F0546002092469B46884606461B
:10024000814640241BE0284641464746224600F0AE
:1002500042F853465A46C01A914110D311461846E7
:10026000224600F029F82D1A67EB01084F46224676
:100270000120002100F020F817EB00094E41201E5C
:10028000A4F10104DFDC484631462A464346BDE876
:10029000F09F0000064C074D06E0E06840F00103C7
:1002A00094E8070098471034AC42F6D3FFF78EFF6E
:1002B000E022000800230008202A04DB203A00FA8C
:1002C00002F1002070479140C2F1200320FA03F3AD
:1002D000194390407047202A04DB203A21FA02F0AB
:1002E0000021704721FA02F3D040C2F12002914070
:1002F00008431946704700BFFEE721B1026842F08B
:100300000102026003E0026822F00102026070470D
:10031000016821F0010101600021016041608160FC
:10032000C1600161212141614A49884204D13D21D6
:10033000484A103A91608CE046491831884205D10C
:100340004FF47461434A103A916082E04149303180
:10035000884205D14FF474113E4A103A916078E01A
:100360003C494831884205D14FF07461394A103A0E
:1003700091606EE037496031884204D13649354A90
:10038000103AD16065E033497831884204D133496D
:10039000304A103AD1605CE02E499031884204D155
:1003A0002F492C4A103AD16053E02A49A83188429B
:1003B00005D14FF03D51274A103AD16049E0294913
:1003C000884204D13D21274A083A116041E025497D
:1003D0001831884205D14FF47461224A083A1160FD
:1003E00037E020493031884205D14FF474111D4A5D
:1003F000083A11602DE01B494831884205D14FF081
:100400007461184A083A116023E016496031884245
:1004100004D11149134A121F11601AE011497831B1
:10042000884204D10D490F4A121F116011E00D4995
:100430009031884204D10A490A4A121F116008E02B
:100440000849A831884204D14FF03D51054A121F96
:1004500011607047106002403D000020400F0020F6
:1004600000003D2010640240014600200A6802F0AE
:1004700001020AB1012000E00020704701464868EF
:1004800080B2704710B500220268134B1A40CC6846
:100490000B6823434C6923438C692343CC69234372
:1004A0000C6A23434C6A23438C6A23434C6B2343DB
:1004B0008C6B23431A430260426922F00702D1E9A0
:1004C0000B3423431A4342610B6943604B688360DA
:1004D0008B68C36010BD00003F801CF04160704716
:1004E000704700000149086070470000143C01405B
:1004F00030B10749096841F48061054A116005E09F
:100500000349096821F48061014A116070470000C5
:10051000003C024070B504460A460026092502B98F
:1005200009E0012A01D1160205E0022A01D11602D2
:1005300001E04FF4407600F09FF80546092D28D1E0
:100540001548006820F440701349086008460068A8
:10055000304308600846006820F0F800086008464C
:10056000006844F0020108430B490860084600682F
:1005700040F48030086000F07FF8054606480068C7
:1005800020F00200044908600846006820F0F800E6
:100590000860284670BD0000103C02400920134945
:1005A000096801F48031B1F5803F01D101201CE0E0
:1005B0000E49096801F0100109B1062015E00B4948
:1005C000096801F4807109B102200EE00749096849
:1005D00001F0EF0109B1072007E00449096801F0C3
:1005E000020109B1082000E0092070470C3C0240DC
:1005F0000348006840F0004001490860704700006F
:10060000103C024030B502460C46092500F034F893
:100610000546092D19D10E48006820F440700C4998
:1006200008600846006840F40070086008460068EA
:1006300040F001000860146000F01EF80546044810
:10064000006820F0010002490860284630BD000023
:10065000103C02400548006800F0004028B1044802
:1006600002490C390860034808607047103C02409A
:1006700023016745AB89EFCD08B509200090FFF74E
:100680008DFF009002E0FFF789FF00909DF80000C9
:100690000128F8D09DF8000008BDF0B50A460021F9
:1006A0000023002400BF3DE0012505FA01F3156891
:1006B00005EA03049C4234D105684F000326BE407E
:1006C000B543056015794E00B540066835430560B1
:1006D0001579012D02D01579022D16D185684F00AC
:1006E0000326BE40B543856055794E00B540866807
:1006F00035438560456801268E40B54345604568B1
:1007000096798E40B6B235434560C5684F000326E2
:10071000BE40B543C560D5794E00B540C668354387
:10072000C560491C1029BFD3F0BDF0B500230024DB
:100730004D07ED0E02FA05F3CE1000F1200555F835
:1007400026504E07F70E0F26BE40B543CF1000F1DE
:10075000200646F82750CE1000F1200555F8265007
:1007600045EA0304CE1000F1200545F82640F0BD0F
:10077000418370471CB50121062000F0F7F81820CE
:10078000009001208DF8040000208DF80600022062
:100790008DF8050000208DF8070069461F48FFF717
:1007A0007CFF18211D48FFF7E3FF41F2E140009074
:1007B00000208DF8040002208DF8050000208DF83F
:1007C000070069461548FFF768FF42F27560009020
:1007D00001208DF8040000208DF8060002208DF81D
:1007E000050000208DF8070069460D48FFF755FF0A
:1007F00042F275210A48FFF7BBFF4FF4C570009025
:1008000000208DF8040002208DF8050000208DF8EE
:10081000070069460248FFF740FF1CBD0004024084
:100820000008024000BFFEE72DE9F04190B0044609
:100830000D4617461E46DDF858801A48844204D9F2
:100840000121880500F092F803E00121480500F03D
:100850008DF82046FFF75CFD00BF2046FFF704FE41
:100860000028FAD10195029703960490CDF81480E0
:1008700006904FF4806007900020089009904FF494
:1008800080700A9000020B9000200C9003200D90C5
:1008900000200E900F9001A92046FFF7F3FD10B045
:1008A000BDE8F0810064024070B504460D460021A9
:1008B0002046FFF722FD00BF2046FFF7D5FD0028A8
:1008C000FAD129462046FFF709FE01212046FFF70D
:1008D00014FD70BD00BFFEE77047000070B5002139
:1008E00000230F22C4781CB3174C246804F4E0647E
:1008F000C4F5E064C4F30721C1F10404E3B20A4182
:1009000044789C40E1B28478144021430C07210EC6
:100910000E4C05786155047804F01F050124AC40A5
:1009200005786D11AD0005F1E025C5F8004109E03D
:10093000047804F01F050124AC40054D06787611BB
:1009400045F8264070BD00000CED00E000E400E03A
:1009500080E100E002490143024A11607047000053
:100960000000FA050CED00E07047000029B1064ACE
:1009700012680243044B1A6004E0034A126882437F
:10098000014B1A60704700003038024029B1064A16
:1009900012680243044B1A6004E0034A126882435F
:1009A000014B1A60704700004038024029B1064AE6
:1009B00012680243044B1A6004E0034A126882433F
:1009C000014B1A607047000044380240F0B5002126
:1009D00000220024022500260223324F3F6807F040
:1009E0000C0121B1042905D0082937D105E02E4F8B
:1009F000076036E02D4F076033E02A4F3F1F3F6806
:100A0000C7F38056274F3F1F3F6807F03F036EB183
:100A1000264FB7FBF3F7DFF88CC0ACF1040CDCF821
:100A200000C0CCF3881C07FB0CF40CE01E4FB7FB96
:100A3000F3F7DFF870C0ACF1040CDCF800C0CCF3C5
:100A4000881C07FB0CF4174F3F1F3F68C7F3014793
:100A50007F1C7D00B4FBF5F7076002E0124F0760D2
:100A600000BF00BF0F4F3F6807F0F0010909104FAA
:100A70007A5C0768D74047600A4F3F6807F4E05147
:100A8000890A0B4F7A5C4768D7408760054F3F68FB
:100A900007F46041490B064F7A5C4768D740C7604E
:100AA000F0BD0000083802400024F40040787D01C9
:100AB0001F00002010B54FF4807000F021F80128CD
:100AC00005D1000200F00EF803A000F04DFE4FF437
:100AD0000030FFF707FD10BD414C41524D20412130
:100AE0000D0A000081B241F08001044A126802F050
:100AF000800262EA0101014A116070470C2800403F
:100B000010B5014600200022054B1B68054C03EA86
:100B1000040202EA01030BB1012000E0002010BD35
:100B20000C2800407F3F010010B54FF48060FFF7B4
:100B3000E7FF012802D18002FFF7D4FF4FF48000C5
:100B4000FFF7D0FC10BD00002DE9F0474C4E002708
:100B500000244C4801784C4801F0E4FA4A480078F7
:100B6000AA2879D1484840785528FAD147480088C2
:100B7000401C464908804448407908286DD14448C3
:100B80000088401C424908803F48C07900063E4921
:100B9000097A40EA01403C49497A40EA01203A4951
:100BA000897A40EA010738488079041F3046384482
:100BB000061B35488079C01DC1B2334800F02CFABD
:100BC000804631488079C01D2F49095C41452DD1AF
:100BD0003048006886421DD9E11704EB91718910F5
:100BE000A4EB810151B9A146E01704EB907081108C
:100BF000324625480B3000F0FFF813E0A146E0171D
:100C000004EB90708010411C32461F480B3000F0FE
:100C1000F3F807E020A000F0A7FD1A4801781A4871
:100C200001F080FA00251B48066003E0012521A0A1
:100C300000F09AFD29461548008800F09DFB5DB93B
:100C400028488068B84219D8012027490860381917
:100C5000411C26A000F088FD10E00B4840790928CF
:100C600003D12CA000F080FD08E007484079072858
:100C700004D100210548008800F052FBBDE8F08750
:100C8000000002081E0000201C01002006000020B9
:100C90000C000020100000205265636569766564D1
:100CA000207265706561746564207061636B657442
:100CB000210D0A0052656365697665642070616381
:100CC0006B6574206861732077726F6E6720646152
:100CD00074612C204E656564207265747279210DF3
:100CE0000A00000030000020000000204669726DFC
:100CF0007761726520646F776E6C6F616420636FDB
:100D00006D706C657465212053697A65203D2025DE
:100D1000780D0A005265636569766564204150501C
:100D200020726573706F6E736520666F7220434D1D
:100D30004430390001461C48814201D200207047EE
:100D40001A48814201D20820F9E71948814201D2AC
:100D50001020F4E71748814201D21820EFE7164827
:100D6000814201D22020EAE71448814201D22820A2
:100D7000E5E71348814201D23020E0E71148814283
:100D800001D23820DBE71048814201D24020D6E76B
:100D90000E48814201D24820D1E70D48814201D25C
:100DA0005020CCE75820CAE7004000080080000827
:100DB00000C000080000010800000208000004084C
:100DC000000006080000080800000A0800000C08DF
:100DD00000000E0830B504460D46002306E010461C
:100DE00000F007F844F82300121D5B1CAB42F6D359
:100DF00030BD0146086870472DE9F04706460F46AA
:100E000014464FF009080025A946B4F1006F02D33B
:100E100004F0030008B1BDE8F087FFF71BFC0020D9
:100E2000FFF766FB254604EB87091E48854221D261
:100E30001DE02846FFF7DDFF401CB8B12846FFF74C
:100E400079FF82460221FFF765FB80462846FFF7BF
:100E500071FF82462A46514613A000F085FCB8F186
:100E6000090F04D01DA000F07FFC02E02D1D4D45B0
:100E7000DFD300BFB8F1090F0CD108E0204631687C
:100E8000FFF7C0FB092800D003E0241D361D4C45A8
:100E9000F4D300BF0120FFF72BFBFFF7A9FB00BF36
:100EA000B9E700000000FF1F464C4153485F457200
:100EB000617365536563746F7220736563746F72D9
:100EC000203D202564202061646472657373203D99
:100ED0002030782578200D0A00000000466C6173F0
:100EE00068204572617365206572726F72212121DD
:100EF0000D0A0000704700000CB500200190009022
:100F00004148006840F480303F49086000BF3E48D7
:100F1000006800F4003000900198401C0190009897
:100F200018B90198B0F5A04FF1D13748006800F426
:100F3000003010B10120009001E0002000900098E6
:100F4000012860D130484030006840F080502E4980
:100F5000403108602D48006840F440402B4908604B
:100F600029480830006828490831086008460068A8
:100F700040F4004008600846006840F4A050086053
:100F80002348091F0860081F006840F08070091F8F
:100F9000086000BF1C48006800F000700028F9D00D
:100FA0001A48006840F480301849086000BF1748AC
:100FB000406800F480300028F9D01448006840F4FC
:100FC00000301249086000BF1048406800F400304B
:100FD0000028F9D040F205700E4908600A48083030
:100FE000006820F0030008490831086008460068DE
:100FF00040F00200086000BF03480830006800F0BD
:101000000C000828F8D10CBD0038024000700040E8
:1010100019544077003C024010B502460B460024AC
:101020001078552802D15078AA2805D05078552834
:101030000CD11078AA2809D1002104E0505C20448A
:1010400084B2481C81B29942F8DB01E0002010BD57
:10105000E0B2FCE7042808D14FF0E021096941F033
:1010600004014FF0E022116107E04FF0E02109692F
:1010700021F004014FF0E022116170477047000039
:1010800010B51548006840F4700013490860134813
:10109000006840F001001149086000200F49083144
:1010A00008600E4800680E4908400C4908600D4869
:1010B000091D0860081F006820F48020091F0860CF
:1010C000002006490C310860FFF716FF4FF0006062
:1010D00001498039086010BD88ED00E00038024009
:1010E000FFFFF6FE1030002410B50121064800F085
:1010F00082F8012802D105A000F036FB0121024848
:1011000000F06AF810BD00000040014054494D391C
:10111000206973206F70656E210D0A0010B50121E2
:10112000074800F068F8012805D106490870002139
:10113000034800F054F80121014800F04DF810BDBB
:1011400000040040040000207FB505460C46012144
:101150000220FFF71BFC0295ADF804400020ADF81B
:101160000600ADF80C0001A90D4800F05FF801225F
:1011700011460B4800F050F80021094800F02FF804
:101180001D208DF8000001208DF8010003208DF84E
:10119000020001208DF803006846FFF79FFB7FBD2A
:1011A0000004004010B50121064800F024F8012891
:1011B00002D105A000F0D8FA0121024800F00CF895
:1011C00010BD00000008004054494D3420697320D0
:1011D0006F70656E210D0A00CA430282704721B10B
:1011E000028842F00102028004E002884FF6FE739A
:1011F0001A400280704730B50246002000230024C8
:10120000158A05EA0103958905EA010413B10CB1B9
:10121000012000E0002030BD1AB183890B43838197
:1012200002E083898B43838170470000002202889B
:10123000184B98420ED0184B98420BD0B0F1804F0B
:1012400008D0164B984205D0154B984202D0154B4A
:10125000984204D14FF68F731A404B881A43124BB1
:10126000984207D0114B984204D04FF6FF431A40E2
:101270000B891A4302804B68C3620B880385054BB8
:10128000984202D0044B984201D18B7A0386012305
:1012900083827047000001400004014000040040C8
:1012A00000080040000C0040001000400014004006
:1012B0007FB504460D4600200090019002900390F7
:1012C00055208DF80000AA208DF8010001208DF82E
:1012D0000200200A8DF80300E0B28DF80400092016
:1012E0008DF8050003208DF80600E8B28DF80700A0
:1012F0000A48007F8DF80800084890F820008DF813
:1013000009000A216846FFF787FEC0B28DF80A007F
:101310000B21684600F0C8F97FBD000030000020B6
:101320007FB504460D460020009001900290039086
:1013300055208DF80000AA208DF8010001208DF8BD
:101340000200200A8DF80300E0B28DF804000720A7
:101350008DF8050001208DF80600E8B28DF8070031
:1013600008216846FFF758FEC0B28DF80800092131
:10137000684600F099F97FBD7FB504460D46002010
:10138000009001900290039055208DF80000AA2053
:101390008DF8010001208DF80200200A8DF803006D
:1013A000E0B28DF8040008208DF8050001208DF8CA
:1013B0000600E8B28DF8070008216846FFF72CFE0A
:1013C000C0B28DF808000921684600F06DF97FBDB4
:1013D00010B540F225511D4800F0A0F810B31B488D
:1013E00000F056F9C4B21A48008800F40040C8B9A9
:1013F0001748008800F4804060B10A2C03D0002018
:101400001349088020E01248008840F40040104949
:10141000088019E00D2C06D10D48008840F480406A
:101420000B49088010E00A480088C0F30D00094904
:101430000C5407480088401C05490880084600886D
:10144000C72801DD0020088010BD000000500040CA
:101450001C0000205400002010B540F224410E482A
:1014600000F05CF8B8B10C4800F012F90B48FFF737
:1014700005F8C0F1FF00C4B2094804700121094811
:10148000FFF7ADFE40F22441034800F016F8FF21BB
:101490000248FFF709FA10BD0010014088640240BD
:1014A0001E0000200004004001F40072B2F5007F2D
:1014B00000D100BFCA430280704710B5002200234C
:1014C00040F66A14A14200D100BF0A1201249440E0
:1014D000A3B2DC43048010BD21B1828942F40052E2
:1014E000828104E082894DF6FF731A408281704741
:1014F0001AB1838A0B43838202E0838A8B438382FF
:10150000704702460020B1F5007F00D100BF13886C
:101510000B400BB1012000E00020704770B502467F
:10152000002400230025002040F66A16B14200D1B5
:1015300000BFC1F3421501F01F03012606FA03F3B1
:10154000012D02D19689334006E0022D02D1168A80
:10155000334001E0968A33400C12012606FA04F467
:101560001688344013B10CB1012000E0002070BD9A
:10157000F0B50346002400260025002040F66A1737
:10158000B94200D100BF1846C1F3421401F01F0652
:10159000012707FA06F5012C01D10C3004E0022CDA
:1015A00001D1103000E014301AB107682F430760F2
:1015B00002E00768AF430760F0BD00002DE9FF4778
:1015C00005460E460024A14600BFA046B08900B1E2
:1015D00000BF2C8A24F44054F08804432C82AC8948
:1015E00041F20C608443B088318908437189084313
:1015F0000443AC81AC8A24F44074B0890443AC82C7
:101600006846FFF7E3F92048854202D01F4885422B
:1016100002D1DDF80C9001E0DDF80890A88900F413
:10162000004040B109EBC90000EB091031684900E6
:10163000B0FBF1F707E009EBC90000EB09103168D6
:101640008900B0FBF1F76420B7FBF0F0040120093A
:10165000642101FB1078A88900F4004040B13220D9
:1016600000EBC800B0FBF1F000F00700044308E015
:10167000322000EB08106421B0FBF1F000F00F0005
:1016800004432C81BDE8FF87001001400014014095
:1016900001468888C0F308007047C1F308028280C1
:1016A000704700BFFEE700002DE9F04105460E46F9
:1016B00014A000F059F8002705E0E95D15A000F03E
:1016C00053F8781CC7B2B742F7DB14A000F04CF80F
:1016D00000240CE000BF40211148FFF712FF002852
:1016E000F9D0295D0E48FFF7D8FF601CC4B2B442A0
:1016F000F0DB00BF40210A48FFF703FF0028F9D0C4
:10170000BDE8F0815573617274315F53656E643A60
:101710002000000025303278200000000D0A000073
:10172000001001400020014908607047082C00406B
:1017300010B50748007800F00FF8FFF7F3FF0548F1
:10174000006808B9012000E000200249086010BDCF
:10175000080000209402414200F07F01014A11601C
:1017600070470000002C00400FB4054B10B503A9D2
:10177000044A029800F018F810BC5DF814FB000051
:10178000CD1C00081800002002E008C8121F08C184
:10179000002AFAD170477047002001E001C1121FF2
:1017A000002AFBD1704700002DE9FF4F8DB00F4696
:1017B0000546002606E025280BD0DDE90F129047EC
:1017C0006D1C761C28780028F5D111B03046BDE894
:1017D000F08F0024A246A1460122EC4900E0044318
:1017E00015F8013F203B02FA03F00842F7D12878B0
:1017F0002A2810D06FF02F022878A0F13001092993
:1018000014D80AEB8A0102EB410144F0020400EB18
:10181000010A6D1CF0E701CF5FEA000A03D544F42A
:101820000054CAF1000A44F002046D1C28782E28E6
:1018300017D115F8010F44F004042A280ED06FF0D8
:101840002F022878A0F1300109290AD809EB890173
:1018500002EB410100EB01096D1CF2E757F8049B14
:101860006D1C28786C280FD006DC4C2817D068280F
:101870000DD06A2814D104E0742810D07A280FD132
:101880000DE044F400140AE044F4801401E044F450
:1018900040146978814202D104F580146D1C6D1CDE
:1018A0002A786E2A1FD00CDC632A31D004DC002A8F
:1018B0008BD0582A11D1A3E0642A68D0692A0CD1B0
:1018C00065E0732A2ED004DC6F2A73D0702A04D10D
:1018D0009BE0752A6FD0782A6ED01046DDE90F1292
:1018E0009047761C50E1C4F30250022806D003282A
:1018F00009D0042801CF09D0066045E101CFF117D6
:10190000C0E9006140E101CF06803DE106703BE1A6
:1019100017F8040B8DF8000000208DF80100EB464D
:10192000012003E057F804BB4FF0FF3061074FF090
:10193000000102D40DE008F10101884649450FDAA3
:101940008045F8DB1BF808100029F4D108E008F105
:10195000010188468142FADB1BF808100029F6D104
:10196000DDE90F23AAEB08008146214600F036F995
:10197000304400EB080604E0DDE90F121BF8010B10
:101980009047B8F10108F7D221464846F7E00A210E
:10199000C4F302534FF0000B0891022B04D001CF87
:1019A000C117032B09D00AE0FF1D27F00707F7E84E
:1019B000020108E032E01FE020E000B2C117042B72
:1019C00001D140B2C117031E71F1000307DA4FF0D5
:1019D000000CD0EB0C006CEB01012D2302E0230581
:1019E00004D52B238DF82430012303E0E30701D035
:1019F0002023F7E7984658E00A2110E010210EE076
:101A000010204FF0000B08900CE010214FF0000B5D
:101A100044F004044FF00809089103E008214FF056
:101A2000000B0891C4F30253022B04D001CF002114
:101A3000032B06D006E0FF1D27F00707F7E8020199
:101A400003E080B2042B00D1C0B24FF0000823079E
:101A50002BD5702A07D0DDF820C08CF0100C5CEA82
:101A60000B0C05D00EE040238DF82430012308E054
:101A700050EA010306D030238DF824308DF825205C
:101A800002239846DDF820C08CF0080C5CEA0B0CB1
:101A90000BD150EA010301D1630706D530238DF83D
:101AA00024304FF00108A9F10109582A04D038A2C6
:101AB0000B9208AA0A920BE03AA2F9E75B46089A51
:101AC000FEF7B6FB0B9B9B5C0A9A521E0A921370A0
:101AD00050EA0102F2D10A98ADEB000000F1200BB0
:101AE000600702D524F4803401E04FF00109D945A4
:101AF00002DDA9EB0B0000E0002000EB0B014144EC
:101B00000890AAEB010AE00306D4DDE90F23214681
:101B1000504600F063F806444FF0000908E009A9B8
:101B200011F80900DDE90F12904709F10109761C4F
:101B3000C145F4DBE0030CD5DDE90F232146504617
:101B400000F04CF8064404E0DDE90F123020904725
:101B5000761C0899481E08900029F5DC08E00A98D0
:101B60000A990078491C0A91DDE90F129047761C0A
:101B7000BBF10001ABF1010BF1DC21465046DDE980
:101B80000F2300F019F806446D1C1BE6092801001C
:101B900030313233343536373839616263646566E3
:101BA00000000000303132333435363738394142A5
:101BB00043444546000000002DE9F041044600255D
:101BC0001E461746880404D405E039462020B04755
:101BD0006D1C641EF9D52846BDE8F0812DE9F04161
:101BE000044600251E469046C80301D5302700E074
:101BF0002027880404D505E041463846B0476D1CCF
:101C0000641EF9D52846BDE8F081000010B50446F1
:101C10006FF00400FFF71EFAE11704EB5171C1F3F6
:101C2000C701074A11701046007800EB4001C1EB74
:101C3000C0104FF6FF7101EAC0000249088010BDD4
:101C4000140000201600002070B504464FF4077001
:101C500094FBF0F0C6B24FF4077094FBF0F100FB78
:101C6000114085B205E04FF4077000F009F8701ECE
:101C7000C6B2002EF7D115B1284600F001F870BDAC
:101C80000146114A12884A434FF0E0235A6100226C
:101C90009A611A46126942F001021A6100BF4FF0C0
:101CA000E022106900F001021AB100F48032002A2B
:101CB000F5D04FF0E022126922F001024FF0E0234C
:101CC0001A6100229A6170471600002070B5044620
:101CD0000D46E1B20548FFF7E0FC00BF4021034894
:101CE000FFF70FFC0028F9D0204670BD00500040DF
:101CF00070B5044611A02168FFF736FD154920682C
:101D00000840B0F1005F11D100211348FFF767FAD6
:101D100012A0FFF729FD2046FEF763FA72B6656848
:101D2000206880F3088800BFA84706E0104A2068B2
:101D300000EA02010FA0FFF717FD70BD0D0A46690A
:101D400072737420776F7264203A20307825580DB2
:101D50000A0000000080FF2F00040040494150208D
:101D60006C6F6164204150502121210D0A00000058
:101D700000E0FF2F415050204E6F7420466F756E6B
:101D800064212030782558200D0A00002DE9F04705
:101D9000ADF5816D4FF000084FF4806102A8FEF7A9
:101DA0003CFAC2464FF4A060FEF7D4FDA820FFF72E
:101DB0002DFFFEF7DFFC4FF4E13000F02BFA4FF47B
:101DC000613000F0CBF96EA0FFF7CEFC40F2473156
:101DD00040F2E730FFF7B8F9FF206F4B6F4A51062A
:101DE00000906F48FEF720FDFF216D48FEF75CFD77
:101DF0006C4A24216C48FEF7EDFF6CA16DA0FFF743
:101E0000B3FC6948008C6849097F40EA01201FFA49
:101E100080F96548008B6449097D40EA012087B25A
:101E20004A4639466EA0FFF79FFC5F48006845F2BE
:101E3000AA5188427ED1B9457CDD002FFCDD72A01D
:101E4000FFF792FC5848816874A0FFF78DFC4FF4AF
:101E500000705549486000207549086000260EE072
:101E600074480078012806D10026FEF76DFE002098
:101E70007049087000E0761C0120FFF7E5FE6C4811
:101E8000006818B943F698208642E9D3464842686C
:101E9000016869A0FFF768FC65480068012854D113
:101EA00071A0FFF761FC774C774D3F4880683E4951
:101EB0004968B0FBF1F201FB120030B93A48806882
:101EC00039494968B0FBF1FA07E03748806836497C
:101ED0004968B0FBF1F000F1010A51466BA0FFF731
:101EE00043FC4FF000081EE02F484068810822465E
:101EF00002A8FEF76FFF2C48406843462A46214659
:101F000000906AA0FFF730FC2748406881082A4605
:101F100002A8FEF771FF2448406804442248406844
:101F2000054408F10108D045DEDB65A0FFF71CFC85
:101F3000694800E018E00088401C674908800021DB
:101F400065480088FFF7B4F902E064A0FFF70CFCD5
:101F50004FF0FF301449086000204860114A2421E6
:101F60001148FEF749FF02E068A0FFF7FDFB464875
:101F7000FFF7BEFE00200DF5816DBDE8F087000083
:101F80000D0A456E74657220426F6F746C6F6164E8
:101F900065720D0A000000001C01002004100140C1
:101FA00088640240000003083000002056312E34BF
:101FB00000000000203C2D2D2D2D2D2D536F66741B
:101FC000776172652056657273696F6E203A2025BD
:101FD000732D2D2D2D2D2D2D3E200D0A00000000DE
:101FE0006F6C645F76657273696F6E203D20257833
:101FF00020206E65775F76657273696F6E203D2075
:102000002578200D0A00000073686F756C642075D8
:1020100070677261646520210D0A00004E657720AB
:1020200046572073697A65203D2025640D0A00001B
:102030000000002004000020434F4E4649475F55F2
:102040005047524144455F434F4E4649472C206616
:102050006C61673A2564202C2073697A65203A25E3
:1020600064200D0A00000000426567696E207570EB
:10207000646174652061707020736563746F722190
:102080000D0A00000000020800000108675F636F8E
:102090006E6669675F757067726164655F626C6FB9
:1020A000636B203D202564200D0A00002030782538
:1020B000782030782578202564202564200D0A00BA
:1020C0007570677261646520697320636F6D706CF1
:1020D00065746564210D0A00060000205265636581
:1020E000697665206669726D7761726520657272C6
:1020F0006F7220616E64207570677261646520661E
:1021000061696C656420210D0A0000006E656564DC
:10211000206E6F74207570677261646520210D0AEE
:102120000000000070B505460E46002407A0FFF72A
:102130001BFB00BF04E0295D05A0FFF715FB641C35
:10214000B442F8DB04A0FFF70FFB70BD52583A0011
:1021500020253032580000000D0A000010B588B06C
:10216000044601210846FEF701FC01211020FEF77C
:102170001DFC072209212548FEF7D7FA07220A216C
:102180002248FEF7D2FA4FF4C060069002208DF884
:102190001C008DF81D0000208DF81E0001208DF818
:1021A0001F0006A91948FEF778FA02940020ADF83E
:1021B0000C00ADF80E00ADF81000ADF814000C20C6
:1021C000ADF8120002A91248FFF7F8F901224021E8
:1021D0000F48FFF78DF901210D48FFF77DF9012226
:1021E00040F224410A48FFF7C3F925208DF8040086
:1021F00003208DF805008DF8060001208DF80700FA
:1022000001A8FEF76BFB08B010BD00000000024003
:102210000010014010B588B0044601210C20FEF7E3
:10222000A5FB01210805FEF7B1FB08220C21294876
:10223000FEF77BFA082202212748FEF776FA0020F3
:102240008DF81E0001208DF81F0002208DF81C0063
:10225000C002069003208DF81D0006A91D48FEF758
:102260001CFA02208DF81C000420069006A91A48CA
:10227000FEF713FA02940020ADF80C00ADF80E0042
:10228000ADF81000ADF814000C20ADF8120002A952
:102290001248FFF793F901211048FFF71DF940217B
:1022A0000E48FFF701F9012240F225510B48FFF7D4
:1022B0005FF935208DF8040000208DF805008DF8B9
:1022C000060001208DF8070001A8FEF707FB08B003
:1022D00010BD000000080240000C02400050004009
:1022E00000230008000000203000000088170008CC
:1022F0003023000830000020F00600009817000886
:1023000000000000000000007F000000000000004E
:1023100000000000000000000000000000000000BD
:10232000000000010203040102030406070809007B
:04000005080001C529
:00000001FF
